:020000040800F2
:10000000F0050020D500000851190008950B0008E4
:1000100000000000000000000000000000000000E0
:10002000000000000000000000000000D11A0008DD
:10003000000000000000000055190008511B0008D6
:10004000E7000008E7000008E7000008E7000008F4
:10005000E7000008E7000008E7000008E7000008E4
:10006000E7000008E9090008EB090008E7000008BC
:100070009B060008E700000800000000E7000008F9
:1000800000000000E7000008000000000000000081
:10009000E700000800000000E7000008E700000893
:1000A000E7000008E7000008E7000008A11C0008BE
:1000B000E7000008E7000008E7000008E700000884
:1000C0000348854600F044FA00480047A12B000889
:1000D000F00500200448804704480047FEE7FEE79B
:1000E000FEE7FEE7FEE7FEE79D1C0008C1000008F2
:1000F00030B50B46014600202022012409E00D46C0
:10010000D5409D4205D31D469540491B2546954047
:1001100040191546521E002DF1DC30BD03460B433D
:100120009B0703D009E008C9121F08C0042AFAD2AD
:1001300003E00B780370401C491C521EF9D2704733
:10014000D2B201E00270401C491EFBD2704700226F
:10015000F6E710B513460A4604461946FFF7F0FFC6
:10016000204610BDF0B51FB40646002082B00546FB
:100170004024019100901BE0019922460F46304631
:1001800000F008FA049A059B801A994110D3104692
:100190001946224600F0EEF9361A8F4101972246A1
:1001A00001200021009F00F0E5F938184D41009032
:1001B0002046641E0028DFDC019B00982946324659
:1001C00007B0F0BDF0B507460846584087B0C00FED
:1001D000049048000E46590040084908BC1A88415E
:1001E00005D2384631461E4617460B460246580091
:1001F000400810434CD0300D039040055900400D8D
:10020000490D0590401A0290402872DA1803012126
:10021000000B09050843019004980092002805D0BE
:100220000199524200208841009201900298402199
:100230000A1A0199009800F09DF905460C466B4694
:1002400007CB00F0B8F9C0197141039A0E0D0023D5
:10025000D71756401A467A40164344D0049A002ACB
:100260002DD0029A012A039A15DC1205C01A914179
:1002700001263605001C7141D20F059ED20700935E
:10028000019202962A46234600F0B5F907B0F0BD68
:1002900038463146FAE71605224A0F46B218C01A08
:1002A000B74101210905001C4F4100187F4111464B
:1002B00018187941E20F10436D19644113E0E20709
:1002C0006D0815436408C2071443039A01261205FA
:1002D000C01A91413605001C7141CE0740083043D9
:1002E0004908C01851412A46234600F077F9CDE766
:1002F000FFE7049801224000C117121A00238B4126
:1003000004983146C417381AA141EEE730B40124ED
:10031000E407634030BC55E730B40124E407614092
:1003200030BC4FE70000E0FFF0B51FB488B00B9978
:100330000998002448400999C00F490049080991CB
:10034000C0070B990090490049080B91099908983A
:10035000A64608431CD00B990A98084318D0099860
:1003600001244000420D4800410D09982405000376
:10037000000B204309900B980003000B20430B90C7
:1003800050181C494018002201901446104605E000
:10039000002001460DB0F0BD032801DA034600E05D
:1003A00003239C46C11A0AAE0AE05F0008ADED5B6C
:1003B0004F00F75B7D430027AA187C41491C5B1E58
:1003C0006145F2DD410004AB5A522104120C0A438C
:1003D000240C401C0828DFDB01980290009970462D
:1003E00001910090059B049A0799069800F003F983
:1003F000D0E700000DFCFFFFF0B50C465C4085B077
:10040000E40FE40703944C00002664085900944666
:10041000490802460296224321D062460A431ED072
:100420006200570D4A000E032303550D01240246B6
:100430002C492405781B1B0B360B401823432643FD
:10044000614600901C46501AB44103D30098401CEA
:10045000009002E0921800985B41002803DA002027
:10046000014605B0F0BD002001210905074686467A
:1004700011E064461D46141BB54106D36546521B68
:10048000B341744607430C43A646CD0740084908CC
:10049000284392185B4105460D43EAD110461843A4
:1004A00013D06046194650407140084306D060465C
:1004B000101AB34106D20122002306E000220123D4
:1004C000DB0702E00122D243531000987446010575
:1004D000381C6141029C039D0019694100F07EF8BF
:1004E000BFE70000FD0300004A0009030123090BD8
:1004F0001B0519430A4B10B5520D9A4202DA00202F
:10050000014610BD064B34339A4203DC9A1A00F0C0
:1005100041F810BD034BD21800F02CF810BD0000BC
:10052000FF030000CDFBFFFF10B5002904DB012411
:10053000E40740428C412146002B04DB1C4601238A
:10054000DB075242A341994200D1904210BD000006
:10055000064C0125064E05E0E36807CC2B430C3C16
:1005600098471034B442F7D3FFF7AEFDE4660008B5
:100570000467000810B5202A04DB0146203A9140A8
:10058000002010BD914020239C1A0346E3401943EC
:10059000904010BD10B5202A04DB0846203AD04018
:1005A000002110BD0B46D340D0402024A21A914018
:1005B0000843194610BD10B5202A06DBCB170846A4
:1005C000203A1041C1170B4306E00B461341D040BF
:1005D0002024A21A91400843194610BD10B5002BE3
:1005E00008DA0024401C614192185B411A4301D192
:1005F0004008400010BDF0B51FB482B005460C00A5
:1006000003D0084601F0C0FB02E001F0BDFB203042
:100610000246009021462846FFF7ACFF049B059A4E
:1006200004460F4618431143084314D0184610439C
:100630001BD0009840210A1A18460599FFF7AAFF17
:1006400005460E46009A05990498FFF793FF084364
:1006500005D0012004E02046394607B0F0BD002057
:10066000C11705430E432C43374300990E98630589
:10067000401A7905E40A00220C43FD0A0A3002D52B
:1006800000200146E9E70105101969410C9C0D9D08
:1006900000196941FFF7A2FFDFE770471CB5002092
:1006A00001900090204800F097FA00283BD100BF4D
:1006B0001D48C0688007800F009000211A4800F094
:1006C000B9FA00BF1848806818490840090740185F
:1006D0001549886000BF00BF00BF13488068C00F85
:1006E0000028F9D10120019002E00198401E0190FC
:1006F00001980028F9D10C48009900F09BFA00BF3E
:100700000948806809490840401C0749886000BFC3
:1007100000BF00BF04480068C007C00F0121484067
:1007200048400028F5D01CBD00240140E8FFFF7FB1
:1007300070B5044600250A4800681123AB22002149
:1007400086680846B04700BF05E0E0B2044A126878
:10075000516888476D1C03488542F6D370BD000080
:1007600034000020180C000070B505460E461446F3
:1007700020462038C4B208480068C0880649096885
:10078000898848436043044909680968421831462A
:10079000284600F02BF970BD30000020FFB585B071
:1007A00004461546012004900027002600200390EF
:1007B000029500E0761C02980178401C0290002906
:1007C000F8D100F0C3F801902A48006881880198A8
:1007D000FFF78EFC03900898012804D002280FD060
:1007E000032818D10AE00398801B224909688988E8
:1007F00048434008001980B204900EE004940CE0D5
:100800000398801B1B490968898848436142401846
:1008100080B2049001E0049400BF00BF0EE02A788B
:1008200006990498FFF7A0FF124800688188049891
:10083000081880B204906D1C781C87B200F086F80E
:100840000C49096889887943401A80B209490968C6
:100850008988884201D3012000E0002029780029FE
:1008600001D0012100E0002108400028D7D109B0C3
:10087000F0BD00003000002070B504460D4600F0C9
:100880005FF8C088604386B203232A4631460020C1
:10089000FFF784FF70BD0000F7B50546144600263B
:1008A000281982B2084800688768019B19462846C3
:1008B000B84700BF05E00448006841683F2088470A
:1008C000761CA642F7D3FEBD34000020FFB581B0F0
:1008D000054614462646E017800F801981100298BD
:1008E0000818401E83B204982818401E82B213488C
:1008F0000068876828460299B84710480068C069B0
:10090000002809D00A9800900C480068C669224661
:100910002846049B0299B04700F020F880B200906E
:1009200000F014F886B20548006887683246002156
:100930000846009BB84705B0F0BD00003400002019
:1009400001480068704700003000002010B50249DF
:1009500009684869804710BD3400002010B502497D
:1009600009688869804710BD3400002010B5012453
:100970000848094908600948094908600968086881
:100980008047FF20FFF7D4FE064800F027F8002438
:10099000204610BD18000020300000203800002044
:1009A000340000202000002010B50A490968C868FA
:1009B000804700BF00BF052000070069002800D065
:1009C00000BF04200449886100BF0A2000F02CFC0D
:1009D00010BD0000340000200004005001490860F0
:1009E000704700003000002070477047F7B584B0B2
:1009F00005460E4600240020039002900190144802
:100A000000688088019012480068C08802900298AF
:100A10003018401E83B201982818401E82B20D483B
:100A20000068314687682846B847019902984843CC
:100A3000039000BF06E0069A105D064A12685168EE
:100A40008847641C03988442F5D307B0F0BD0000CA
:100A5000300000203400002000B587B0012000F0F5
:100A60005BFA022000F058FA0120C0030190012037
:100A70000290002005900220039001A905200007A4
:100A800000F0A6F90120C002019001A91A4800F067
:100A90009FF90420019001A9174800F099F901205D
:100AA0008002019001A9144800F092F9FF20013062
:100AB0000190002002900220059001A90520000766
:100AC00000F086F9012189020B4800F0FBF90121B1
:100AD000C9030520000700F0F5F90121C90305202D
:100AE000000700F0F1F90421034800F0EDF90A20B5
:100AF00000F09AFB07B000BD0004005010B504469A
:100B00000121C9030520000700F0DCF90121C90219
:100B1000064800F0D9F9E0B200F0C2FF0121C90394
:100B20000520000700F0D0F910BD000000040050BF
:100B300010B504460121C9030520000700F0C2F9E1
:100B40000121C902064800F0BDF9204600F0A8FFC7
:100B50000121C9030520000700F0B6F910BD00000F
:100B60000004005000BF10200949086200BF00BF08
:100B700008460068202108430549086000BF00BFFF
:100B800008460068102108430149086000BF70470B
:100B90000038014000BFFEE770B504460D46002650
:100BA000204600F021F8002810D1A96868680843A1
:100BB000E9680843E168074A11400843E06020699A
:100BC0008000800829680843206100E00126304643
:100BD00070BD0000C73FFFFF01468868C007C00F17
:100BE000012250405040704701468868C007C00F3E
:100BF000012250405040704770B505460C46002613
:100C00002846FFF7F1FF00280ED1616820680843ED
:100C1000A1680843E168084321690843E968044A78
:100C200011400843E86000E00126304670BD000036
:100C30003CC2FEFFC268920892000A43C26070473D
:100C400070B5049C102C09D14D1E094E755D2D18F0
:100C5000EA604D1E755D2D18AB6008E04D1E044E18
:100C6000755D2D18AA604D1E755D2D18EB6070BD69
:100C7000E22F000810B54A1E044B9A5C82580123EB
:100C80001A434B1E014CE35CC25010BDE22F00081A
:100C900030B54B1E064CE35C1B185B681B0C1B0439
:100CA00013434C1E024D2C5D2418636030BD0000C0
:100CB000E22F0008024949688143014A51607047A8
:100CC00000040140024909688143014A11607047EC
:100CD00000040140024949680143014A51607047DC
:100CE000000401400249C9680143014AD1607047CC
:100CF00000040140024909680143014A116070473C
:100D000000040140024989680143014A916070472B
:100D10000004014070B504460025207900284DD01C
:100D20002068002850D06079002804D0012809D01C
:100D3000022815D10DE02068FFF7BCFF2068FFF7FF
:100D4000D9FF0FE02068FFF7BDFF2068FFF7C2FF63
:100D500008E02068FFF7CEFF2068FFF7BBFF01E047
:100D6000012500BF00BFA07900282DD0A07901285F
:100D700004D002280DD003281DD115E020681349A6
:100D8000C9688143114AD16000BF2068FFF7BAFFEC
:100D900013E020680D49896881430C4A916000BFC7
:100DA0002068FFF79FFF08E02068FFF7ABFF20688F
:100DB000FFF798FF01E0012500BF05E02068FFF77D
:100DC00081FF2068FFF776FF284670BD00040140D0
:100DD000F0B502460B46002600216CE00124B44029
:100DE000186820400146002964D05868012802D0C4
:100DF0005868022816D1986894680D464D436F00D4
:100E0000ED19AC430D464D4345432C43946000BF60
:100E1000DC68186855688543074667433D4355605D
:100E200000BF00BF1869D4680D464D436F00ED192F
:100E3000AC430D464D4345432C43D46000BF586836
:100E4000022829D1FF2911D85869146A0D464D434B
:100E50004D434D432F017D1BAC430D464D434D4348
:100E60004D4345432C43146200BF15E05F69080AF7
:100E700040430C0A60430C0A60430401241A506A80
:100E8000A0430C0A64430D0A6C430D0A6C437C4377
:100E90002043506200BF00BF586814680D464D43A0
:100EA0006F00ED19AC430D464D4345432C43146090
:100EB00000BF00BF761C1868F04000288ED1F0BD3E
:100EC00081627047816270478161704710B54269E5
:100ED00013460B401B040C4694432343836110BD0F
:100EE00008B50549C96A0143034AD1621146C96A76
:100EF0000140009100BF08BD0010024008B505493F
:100F0000C96A0143034AD1621146C96A014000918E
:100F100000BF08BD0010024008B50549C96A014379
:100F2000034AD1621146C96A0140009100BF08BD61
:100F30000010024070B504467D25ED00294620468C
:100F4000FFF7D6F8401E044948610020886105205B
:100F5000086100BF70BD000000E000E010B504466D
:100F600000F030FD2060206800F0F6FC60606068F2
:100F700000F004FDA060606800F012FDE06010BDAC
:100F8000F8B504460025032C2FD1204600F066F862
:100F90002104401A1ED0012804D0022806D00328BC
:100FA00017D10FE000F00EFD05461DE000F060F8DF
:100FB000002806D000F064F8002801D0254D00E09C
:100FC000254D11E000F064F8002801D00125ED0363
:100FD0000AE000BF00F0F6FC074600F0BDFC064644
:100FE00000F0DEFC054600BF00BF0C2C2FD12046D0
:100FF00000F034F82104401A1ED0042804D0082838
:1010000006D00C2817D10FE000F0DCFC05461DE0EF
:1010100000F02EF8002806D000F032F8002801D0A9
:101020000C4D00E00C4D11E000F032F8002801D02A
:101030000125ED030AE000BF00F0C4FC074600F004
:101040008BFC064600F09AFC054600BF00BF284610
:10105000F8BD000000093D000024F40001460348EB
:10106000C06808400A041043704700004010024066
:1010700002480068042108408008704700100240C0
:101080000248006810210840000970470010024023
:1010900003480069012149020840400A70470000E6
:1010A0004010024002484068072149030840704749
:1010B0000010024030B50246012300BF10684024F2
:1010C00020408009002826D14C68086820438C689D
:1010D0002043CC6820430C6920434C6920438C6931
:1010E0002043CC6920430C6A204314680D4D2C40EA
:1010F0002043106050680424A0434C69240C204312
:1011000050605C03086AA04204D1486A84B214614A
:1011100000BF00BF0023D0690124E402A043D061D6
:10112000184630BD4000FFFF0149086070470000CD
:1011300008000020F0B585B004460D46012004905B
:1011400000200390204600F067F8002858D1E96895
:101150006868084329690843A969084321682A4A3D
:10116000114008432060A86861680322120391437C
:101170000143616000BF6869A16812119143014396
:10118000A16000BF2148844204D10320FFF7F8FE8C
:10119000039006E01E48844203D10C20FFF7F0FEC6
:1011A0000390039800282BD02868002828D000201E
:1011B0000490039FA86902902E680121C903029838
:1011C000884214D17900720888183146FEF790FFE2
:1011D00080B201900F4901980840009001980007E3
:1011E000400F0099084300900098E06006E0710805
:1011F000C8193146FEF77CFF80B2E06000BF00BF37
:10120000049805B0F0BD0000F369FFEF003801401D
:1012100000440040F0FF000001460868C007C00F0E
:10122000012250405040704708B50A4909690091B1
:1012300000BF411C002900D0401C07E00549096996
:10124000012212041140002900D0401E0028F5D1CF
:1012500008BD000000E000E070B590B014210BA8BC
:10126000FEF775FF00200790089009900A9018215A
:1012700001A8FEF76CFF012040028649496B01433B
:10128000844A51631146496B0140009100BF00BF81
:1012900001201146C96A0143D1621146C96A014061
:1012A000009100BF00BF02200190032002900020A7
:1012B000059001A905200007FFF78AFD0120002104
:1012C000754A926A431E9D000F23AB409A43431E0A
:1012D0009D000B46AB401A436F4B9A6200BF6E48AD
:1012E0008038012100224B1E6C4DEB5CC3586C4DC5
:1012F0002B4013434D1E694E755D435100BF00BF27
:101300004B1E3546EB5CC35803252D03AB431343FB
:101310004D1E755D435100BF20224B1E3546EB5CD0
:10132000C3582025AB4313434D1E755D435100BF89
:1013300000224B1E3546EB5CC3584025AB4313439C
:101340004D1E755D435100BF80224B1E3546EB5C40
:10135000C3588025AB4313434D1E755D435100BFF9
:1013600082154B1E3546EB5CC35803252D02AB435B
:1013700013434D1E755D435100BF02154B1E35468C
:10138000EB5CC3580325AD02AB4313434D1E755DA3
:10139000435100BF00210C2000F01AFD0C20002852
:1013A00005DBC206D20E012191403E4A116000BF0A
:1013B0003D483E49896A4203520B11433B4A9162C0
:1013C00000BF00200B900C9050140D9003200E9045
:1013D00090140F900BA91046FFF70EFC0020334924
:1013E0004969C908C9000143304A516100BF00BFC3
:1013F00011460969490849000143116100BF00BF56
:101400001146C968042291430143284AD16000BFB4
:1014100000BF274909680122520691430143244A2B
:10142000116000BF00BF21484068042188431F4964
:10143000486000BF00BF08464068082188431B4938
:10144000486000BF032080070790002008900990A3
:101450000A9007A91548FFF79FFB00BF1348806853
:10146000144908400121090708431049886000BF5A
:10147000114912480068FEF73BFE0A214843054621
:10148000FEF736FE044600E0641E002CFCD110B0CE
:1014900070BD00000010024080000240D42F000800
:1014A000EFBFFFFF00E100E0020000040024014064
:1014B00008270140E8FFFF7F400D030008000020DF
:1014C00008B501200C49096B01430B4A1163114611
:1014D000096B0140009100BF00BF0021092000F00E
:1014E000B3FC092000F068FC00210A2000F0ACFCED
:1014F0000A2000F061FC08BD0010024010B588B061
:1015000000200690079018216846FEF720FE8020F4
:10151000FFF7E6FC0120FFF7E3FC0220FFF7E0FC09
:10152000202105200007FFF7CBFC04215648FFF7D8
:10153000C7FC012189025448FFF7C2FC0121C902FE
:101540005148FFF7BDFC0121C90305200007FFF743
:10155000B7FC10214C48FFF7B3FC002108464B4A6A
:101560008300D258040C0F23A3409A43040C0B466B
:10157000A3401A43454B84001A5100BF01200522A5
:101580001207D268034643435C001B199A43034683
:1015900043434B431A4305231B07DA6000BF00BFD8
:1015A0001A461268034643435C001B199A430346DC
:1015B00043434B431A4305231B071A6000BF0690A1
:1015C0000121684601774177817706A8FFF7A2FBE2
:1015D00020200090012001900020029003900490B0
:1015E000694605200007FFF7F3FB04200090012067
:1015F0000190002002900390049069462248FFF772
:10160000E7FB012080020090012001900020029061
:101610000390049069461C48FFF7DAFB0120C002E2
:1016200000900120019000200290039004906946F0
:101630001548FFF7CDFBFF200130009000200190FE
:1016400002200490694605200007FFF7C1FB012036
:10165000C00300900120019002200290002003901E
:101660000490694605200007FFF7B2FB10200090A8
:1016700001200190002002900390049069460248E6
:10168000FFF7A6FB08B010BD0004005008000140A1
:1016900000B591B0282107A8FEF759FD182101A82F
:1016A000FEF755FD012000032E49496B01432D4AE9
:1016B00051631146496B0140009100BF00BF0120FA
:1016C000FFF71CFC0220FFF719FC0120C00201906B
:1016D00002200290032003900020049005900690C1
:1016E00001A905200007FFF773FB082001900220E5
:1016F00002900020039004900590069001A91A48DA
:10170000FFF766FB2020019002200290002003904A
:1017100004900590069001A91348FFF759FB00209B
:101720000790FF20053008900020099002200A90C1
:1017300001200B9040020C9010200D9000200E9084
:101740000F900720109007A90848FFF7B3FC00206E
:1017500006494968102291430143044A516000BF81
:1017600011B000BD001002400004005000300140E4
:1017700030B58FB01C2108A8FEF7E9FC182102A89B
:10178000FEF7E5FC012080036B49496B01436A4A7F
:1017900051631146496B0140019100BF00BF012018
:1017A0001146C96A0143D1621146C96A01400191DB
:1017B00000BF00BF4002029002200390032004906B
:1017C0000020059006900420079002A9052000073C
:1017D000FFF7FEFA0120800202900220039003200E
:1017E00004900020059006900420079002A905208F
:1017F0000007FFF7EDFA03200146504A926A431EA4
:101800009C000F23A3409A43431E9C000B46A34019
:101810001A434A4B9A6200BF48488038032100228D
:101820004B1E474CE35CC358464C234013434C1EAD
:10183000434D2C5D035100BF00BF4B1E2C46E35CA3
:10184000C3580C03A34313434C1E2C5D035100BF2C
:1018500000BF4B1E2C46E35CC3582024A343134314
:101860004C1E2C5D035100BF00BF4B1E2C46E35C99
:10187000C3584024A34313434C1E2C5D035100BFA7
:1018800080224B1E2C46E35CC3588024A3431343A1
:101890004C1E2C5D035100BF00224B1E2C46E35C06
:1018A000C3580C02A34313434C1E2C5D035100BFCD
:1018B00000BF4B1E2C46E35CC3588C02A34313436A
:1018C0004C1E2C5D035100BF00211B2000F0F8FAD4
:1018D0001B20002805DBC206D20E012191401A4AC6
:1018E000116000BFE12040020890002009900A909A
:1018F0000B900C200C9000200D900E9008A913481E
:10190000FFF718FC00BF114840680921C90288434D
:101910000E494860084680682A2188430B49886040
:1019200000BF00BF0846006801210843074908605E
:1019300000BF0FB030BD0000001002408000024028
:10194000DB2F0008EFBFFFFF00E100E0003801409F
:1019500000BFFEE770470000014600BF0548C068B1
:10196000F022104010400009034A125C0846D040A3
:10197000704700000010024029300008014600BFF7
:101980000548C068072212021040000A034A125C90
:101990000846D0407047000000100240393000086F
:1019A000014600BF0548C0680722D2021040C00AA5
:1019B000034A125C0846D040704700000010024005
:1019C0003930000810B500BF1648C0680C21084027
:1019D000002806D004280CD0082812D00C2816D1D4
:1019E00011E0FFF75FFB400B401C01218140CC035D
:1019F00015E0FFF745FB002801D00B4C00E00B4C35
:101A00000DE00B4C0BE000F015F8044607E0FFF783
:101A100049FB400B401C01218140CC0300BF00BFAB
:101A2000204610BD0010024000093D000024F400D3
:101A300000127A00F8B500BF1448C06801210904FB
:101A400008400546002D07D1FFF71AFB002801D0FA
:101A50000F4C00E00F4C01E00F4C00BF00BF00BF77
:101A60000A48C068032189050840800D461C0748C4
:101A7000C0680F2189040840800C0849085C604355
:101A800007463146FEF734FBF8BD00000010024067
:101A900000093D000024F40000127A0041300008E3
:101AA000002100BF00BF094A926802231A40520871
:101AB000002AF7D0054A107300BF002102E000BFE2
:101AC0004A1C91B23229FADB704700000030014015
:101AD0007047000008B50020084B094A012100901A
:101AE0000848FFF7ADF8022201210648FFF7D0F8B9
:101AF00001210448FFF7BEF808BD000000000020E7
:101B0000402401400000024008B500200D4B0E4A61
:101B1000032100900D48FFF793F8C82203210B48DA
:101B2000FFF7B6F800BF0848243880684021084312
:101B300005492439886000BF03210448FFF79AF85B
:101B400008BD0000280100202438014000000240A8
:101B50007047000010B500204C4909684908490049
:101B600001434A4A116000BF00BF00BF47480068F8
:101B7000C007C00F0028F8D10120C00244490968FD
:101B80000322D20291430143414A116000BF00BFCA
:101B900040480068012108433E49086000BF00BF7B
:101BA00000BF3C4800680421084080080028F7D0A6
:101BB0001020384949681F22120291430202114342
:101BC000344A516000BF002001218904032292059C
:101BD000304BDB68FD242404A34304460C43144328
:101BE00023432C4CE36000BF00BF204600688901FE
:101BF00008432146086000BF00BF00BF25480068B9
:101C0000012149060840400E0028F6D00020214955
:101C1000C968F022914301431E4AD16000BF00BF52
:101C20001146C9680722120291430143194AD16043
:101C300000BF00BF1146C9680722D2029143014389
:101C4000144AD16000BF03201146C9688143014393
:101C5000D16000BF00BF00BF0E48C0680C21084023
:101C60000C28F8D10C48FFF765F90B48FFF75CFA30
:101C70000320000407494031C968020C914382B235
:101C80001143044A4032D16000BF10BD0020024021
:101C900000700040001002400024F4007047000073
:101CA00070B500BF2448C069102108400009002811
:101CB00041D000BF10202049086200BF1F48032107
:101CC0004A1E1F4B9A5C825853085B004A1E1C4DEB
:101CD000AA5C835000BF00BF4A1E2B469A5C1218B4
:101CE0005268C820801AC4B2002C0ED001201549B9
:101CF000087008464480C821001DFEF728FA2246D5
:101D000011491048001DFEF709FA611C0E48FEF744
:101D10001EFA00BF08480068102108430649086001
:101D200000BF00BF08460068202108430249086040
:101D300000BFFFF7E9FE70BD00380140000002401F
:101D4000223000085C000020280100200FB410B5EC
:101D500004A9074B02AA039800F0B8F9044602A9A7
:101D6000002000F04FFD204610BC08BC04B018470E
:101D70000528000810B5024B024A00F0A7F910BD73
:101D800011280008580000202021020C01D0102149
:101D90001046020A01D010460839020901D0104647
:101DA000091F820801D01046891E420801D0881EF2
:101DB0007047081A70470000002805DBC206D20EE3
:101DC00001219140014A11607047000000E100E0EC
:101DD00010B5002819DB1A4A03231B02D218830806
:101DE0009B00D2588307DC0EFF23A3409A438B0746
:101DF0001B0E8407E40EA3401A43114B0324240254
:101E00001B198408A4001A5118E00E4A03071B0F7F
:101E1000083B9B089B00D2588307DC0EFF23A3409E
:101E20009A438B071B0E8407E40EA3401A43054B0D
:101E30000407240F083CA408A4001A5110BD000098
:101E400000E100E01CED00E010B5002819DB1A4AA3
:101E500003231B02D21883089B00D2588307DC0E91
:101E6000FF23A3409A438B071B0E8407E40EA34075
:101E70001A43114B032424021B198408A4001A518D
:101E800018E00E4A03071B0F083B9B089B00D25823
:101E90008307DC0EFF23A3409A438B071B0E8407A6
:101EA000E40EA3401A43054B0407240F083CA40882
:101EB000A4001A5110BD000000E100E01CED00E09C
:101EC00010B5002819DB1A4A03231B02D218830815
:101ED0009B00D2588307DC0EFF23A3409A438B0755
:101EE0001B0E8407E40EA3401A43114B0324240263
:101EF0001B198408A4001A5118E00E4A03071B0F8F
:101F0000083B9B089B00D2588307DC0EFF23A340AD
:101F10009A438B071B0E8407E40EA3401A43054B1C
:101F20000407240F083CA408A4001A5110BD0000A7
:101F300000E100E01CED00E002E008C8121F08C14B
:101F4000002AFAD170477047002001E001C1121F3A
:101F5000002AFBD170470000F0B51FB486B0099885
:101F6000089A030D0021024314D05148514A181811
:101F7000504305141198012810981AD0281A401CB3
:101F800000264D4F4D49009601910490002812DA29
:101F9000444211E01198012449A3012801D110986D
:101FA000C1430698119A84600360C26041600BB01F
:101FB000F0BD4042E4E70446210500203F4A001CF2
:101FC00051410391029012E0E00707D032463B46B0
:101FD00001990098FEF7A8F90191009032463B461E
:101FE00010461946FEF7A0F906460F466410002C6D
:101FF000EAD10498039B0028029A0999089806DA06
:10200000FEF792F9019B009AFEF78EF905E0FEF7C4
:10201000F3F9019B009AFEF7EFF904460E46002201
:10202000284BFEF781FA03D80020C043014607E0A1
:102030000022254B20463146FEF7C4F8FEF754FA3D
:10204000102409E0002C0ADB0A220023FEF78AF89C
:10205000079B30321A55641E02460A43F2D1112200
:10206000641C079B121B1C19119B012B03D001231D
:1020700008430ED10AE0084304D01120109000203C
:10208000119077E71098151A6D1E0BE01098824298
:1020900002DD00236D1C03E0824201DA00236D1E85
:1020A000002BEED0069811998260C16030C07EE7A7
:1020B00001FCFFFF104D0000000014400000F03F45
:1020C000300000000000F0430000E03FFFB597B093
:1020D0000646002518E2252877D100242746FD4929
:1020E000049400E00443761C32780120203A9040AA
:1020F0000842F7D130782A280ED0022230780146E3
:102100003039092916D804990A235943303940181F
:102110001443761C0490F1E7189802C804911890B3
:10212000002904DA012040030443484204900220BD
:102130000443761C30782E2814D104200443707890
:10214000761C2A2809D11898761C80C8189009E0B6
:102150000A214F43303FC719761C30780146303989
:102160000929F5D930786C2810D006DC4C281AD013
:1021700068280ED06A2817D104E0742813D07A2872
:1021800012D110E00120400504430CE001210905B3
:1021900001E0032109050C437178814203D101203C
:1021A00000052418761C761C3078119066280BD018
:1021B00013DC58287DD009DC00287BD04528F6D0D8
:1021C0004628F4D047281AD1A5E118E0632835D075
:1021D000642870D0652812D19DE170286CD008DC8D
:1021E0006728F1D069287BD06E280DD06F2806D1E2
:1021F000BAE073282ED0752871D0782859D01A9A51
:10220000199990476D1C7EE16002400F022809D0A9
:1022100003280DD00428189801680DD00D60001D0A
:10222000189070E11898EA1701680D604A60F6E7A7
:10223000189801680D80F2E70D70F0E718986A466B
:1022400001781172001D18900020507202A80090B1
:10225000012005E0189802C8189000200091C043A2
:1022600061070DD5002101E00199491C0191B94296
:1022700012DA8142F8DB009A515C0029F4D10BE0BC
:10228000002101E00199491C01918142FADB019A88
:102290000099895C0029F5D1019904981A9B471A85
:1022A00021463846199A00F097FA019940194518C5
:1022B0000BE04FE02CE113E04EE00098009900782D
:1022C000491C00911A9A199990470198401E019053
:1022D000401CF2D1214638461A9B199A10E137E08A
:1022E0000A200021009001916002410F022907D0CD
:1022F000189A01CA1892C2179446032908D00AE016
:102300001898C01DC108C90005C91891944607E076
:1023100000B2C2179446042902D140B2C1178C46BC
:1023200000226146944506DA0A4600214042914166
:102330008C462D2102E0210504D52B216A4611731C
:10234000012103E0E10701D02021F7E7029155E0E8
:102350000A200AE0102008E010200090002104204C
:1023600004430191082703E0082000210191009017
:102370006002410F022907D0189A01CA1892002260
:102380009446032908D008E01898C01DC108C90068
:1023900005C91891944603E080B2042900D1C0B267
:1023A00000210291210729D51199702906D0009AA0
:1023B0001021019B4A401A4305D00EE040216A4695
:1023C0001173012108E06146014306D030216A46BD
:1023D00011731199517302210291009A0821019BF6
:1023E0004A401A430AD16146014301D1610705D52C
:1023F00030216A46117301217F1E029111995829DB
:1024000004D035A10E910DA90D910DE037A1F9E78A
:102410006146019B009AFDF7A5FE0E9B8C469B5CD6
:102420000D9A521E0D92137061460143F0D10D9822
:1024300005A9081A20300190600703D50120000487
:10244000844300E001270198874201DD381A00E04B
:102450000020019900904118029809180498401A28
:102460000490E00306D421461A9B199A049800F0C0
:10247000B3F94519002706E003A81A9AC05D199917
:1024800090476D1C7F1C02988742F5DBE0030CD55A
:1024900021461A9B199A049800F09EF9451904E008
:1024A0001A9A3020199990476D1C0099481E009087
:1024B0000029F5DC08E00D980D990078491C0D9174
:1024C0001A9A199990476D1C0199481E019000298C
:1024D000F1DC63E10928010030313233343536371D
:1024E0003839616263646566000000003031323360
:1024F0003435363738394142434445460000000000
:1025000000F05AF94519761C3078002800D0E2E531
:1025100028461BB0F0BD600700D406271898C01DE0
:10252000C108C90048680A680831C30FDB07189161
:10253000190001D09CA108E0210501D59BA104E070
:10254000E10701D09AA100E09AA1430011985B082D
:10255000109165280CD006DC452809D046281DD0EE
:10256000472841D141E0662818D067283CD13CE09B
:102570000021112F01DB112000E0781C0191009057
:1025800008A911A8FFF7E8FC139905910021119AF9
:1025900015927F1C12980197009150E00120C0070E
:1025A00003900120019008A9009711A8FFF7D4FC1F
:1025B000139A149905920022119B00921298159378
:1025C000059A0192002901D0104602E0791C4018BA
:1025D0000190381A01D5019804E04042401E009055
:1025E000781C0190C01B029043E0012F00DA012704
:1025F0000021112F01DD112000E0384601910090EB
:1026000008A911A8FFF7A8FC13990591119A0021B8
:10261000129815920091019721070CD40599B9429F
:1026200001DB019900E00191012904DD159A491EA1
:10263000515C302906D0B84201DA011D05DA0121CA
:10264000029115E00199491EEDE7002805DC00998B
:10265000411800910199091A03E0019A411C914225
:1026600000DD01910099401A401C02900120C00732
:102670000390200706D402990198814202DB0020D2
:10268000C043029000206946C87707AF0121039834
:102690000337C907884224D0022011902B201290C2
:1026A000039800280CDA404203902D20129007E096
:1026B0000A210398FDF71CFD30317F1E039039700D
:1026C0001199481E11900029F2DC03980028EFD1DF
:1026D000791E129808703078202108404530BF1EBE
:1026E000387006A8C01BC01D039010980078002801
:1026F00000D00120019941180298C01709180398C9
:1027000009180498401A401E0490E00306D421469C
:102710001A9B199A049800F05FF8451910980078F0
:10272000002803D01A9A199990476D1CE00324D50C
:1027300021461A9B199A049800F04EF845191CE09E
:102740000098002807DB00990598884203DD15985A
:10275000405C199901E0199930201A9A9047009825
:102760006D1C401C00900298401E0290002804D16D
:102770001A9A2E20199990476D1C0199481E0190B4
:102780000029DDDC05E038781A9A7F1C19999047FA
:102790006D1C0399481E03900029F4DC21461A9B06
:1027A000199A0498ACE600002D0000002B000000F0
:1027B0002000000000000000F8B5044600251E4679
:1027C0001746880404D405E039462020B0476D1C24
:1027D000641EF9D52846F8BDFFB50446002581B032
:1027E0001E46C80301D5302700E02027880404D501
:1027F00005E038460399B0476D1C641EF9D528469C
:1028000005B0F0BD0A68531C0B60107070470000E3
:102810000F4A1278012A02D0022A16D10AE000BF1C
:102820000C4AD26940231A40002AF9D0C2B2094B9F
:102830009A620BE000BF084AD26940231A40002A7E
:10284000F9D0C2B2044B9A6200E000BF00BF7047EB
:102850000C000020003801400044004010B5222048
:10286000FEF766F90320FEF749F92020FEF760F92C
:1028700010BDFFB585B01546002400260020049049
:1028800002902420FEF754F92846E917490F091849
:10289000C910C900691A4DD100273EE00E98C65DE7
:1028A000002E33D0002003902CE0002412E0F0072B
:1028B000C00F002806D004A8005DFC21084004A930
:1028C000085505E004A8005D0321084304A9085544
:1028D0007610641C042CEAD36946087C8001497C8C
:1028E000090108436946897C890008436946C97C17
:1028F0000843C0B202900298FEF700F90398401C0A
:10290000C0B2039003980228CFDB05E0FF20FEF75A
:10291000F5F8FF20FEF7F2F87F1CEA17920F521924
:102920009210089B5A431046D20F12185210BA4206
:10293000B4D8A0E0002790E00E98C65DE817800F9D
:1029400040198010401CC20F0095019010184110D2
:10295000781CFDF7CDFB00293ED0002E33D000209F
:1029600003902CE0002412E0F007C00F002806D0EE
:1029700004A8005DFC21084004A9085505E004A84E
:10298000005D0321084304A908557610641C042C3B
:10299000EAD36946087C8001497C090108436946FD
:1029A000897C890008436946C97C0843C0B202900B
:1029B0000298FEF7A3F80398401CC0B20390039856
:1029C0000228CFDB48E0002E46D1FF20FEF796F824
:1029D000FF20FEF793F83FE0E817800F40198010C2
:1029E000401CC20F0095019010184110781CFDF793
:1029F0007FFB002930D1F02E29D0002412E0F0070F
:102A0000C00F002806D004A8005DFC21084004A9DE
:102A1000085505E004A8005D0321084304A90855F2
:102A20007610641C042CEAD36946087C8001497C3A
:102A3000090108436946897C890008436946C97CC5
:102A40000843C0B202900298FEF758F804E0F02E56
:102A500002D1FF20FEF752F87F1CEA17920F52199D
:102A60009210521C089B5A431046D20F1218521053
:102A7000BA4200D960E709B0F0BD12207047AC201F
:102A80007047000010B50024FDF7E6FF1020FEF7A8
:102A90004FF80020FEF732F81120FEF749F8032026
:102AA000FEF72CF84420FEF743F80020FEF726F846
:102AB0001120FEF723F84520FEF73AF80020FEF734
:102AC0001DF8AB20FEF71AF84E20FEF731F8002073
:102AD000FEF714F84F20FEF72BF80020FEF70EF853
:102AE000F020FEF725F81F20FEF708F82120FEF75A
:102AF0001FF80320FEF702F82C20FEF719F8A0209B
:102B0000FDF7FCFF3C20FEF713F86420FDF7F6FF0D
:102B10003220FEF70DF800BF05E00449085DFDF71F
:102B2000EDFF601CC4B25A2CF7DB10BD276600080D
:102B300010B52220FDF7FCFFC420FDF7DFFF2020A9
:102B4000FDF7F6FF10BDF8B507460C4615461E46C4
:102B50004420FDF7EDFF2046FDF7D0FF3046FDF79E
:102B6000CDFF4520FDF7E4FF3846FDF7C7FF2846B7
:102B7000FDF7C4FF4E20FDF7DBFF2046FDF7BEFF4B
:102B80004F20FDF7D5FF3846FDF7B8FFF8BD10B56B
:102B900004462420FDF7CCFF2046FDF7AFFF10BD13
:102BA00088B0002001900290039001209649496B63
:102BB0000143954A51631146496B0140009100BFA2
:102BC00000BF00071146896B014391631146896B71
:102BD0000140009100BF00BFFEF7BCFFFEF78EFC76
:102BE000FEF76EFCFEF754FDFEF7C2FDFEF734FB68
:102BF00000BF86480068402108438449086000BF40
:102C000004A8FEF7ABF982A1012000F0CBF98BA15B
:102C1000012000F0C7F992A1012000F0C3F994A1AE
:102C2000012000F0BFF997A1012000F0BBF99AA1A3
:102C3000012000F0B7F9A549012000F0B3F9A4A1E3
:102C40000120049A00F0AEF9A7A1012000F0AAF932
:102C5000FEF740FFFDF722FDFDF784FFFEF754FF6E
:102C6000FDF784FEAC4810231A460E210090002088
:102C7000FDF72CFEA84810231A46002100900846B4
:102C8000FDF724FEA44810231A46002100909A2044
:102C9000FDF71CFEA04810231A460E2100909A2032
:102CA000FDF714FEAC220C210020FDF7F5FD0123F9
:102CB0009AA207210020FDF771FDAC220621002019
:102CC000FDF7EAFDFDF770FE9A48FEF7ADFA202009
:102CD00005210907886200BF10209749886100BF5D
:102CE00090E09448FEF7A0FA9448FDF775FF01289C
:102CF00019D100BF9148806802210840400800288F
:102D000011D100BF8D488068042108408008002848
:102D100009D100BF8948806889490840001D87495A
:102D2000886000BF00BF202105200007FEF7CEF815
:102D300010218148FEF7CAF882490988814A5288E1
:102D40008C18E10F091949107F4A514308467F4901
:102D5000FDF7CEF97E4908807E48007801283BD1F6
:102D600000207D4908707B490870084642887BA195
:102D7000012000F017F9774A121D7EA1012000F012
:102D800011F90020FDF7D4FCFF20FDF7D1FC7048BD
:102D900002887DA101A8FEF7D9FF01A90420FDF753
:102DA0006BFD7CA10320FDF767FDAC22082100200C
:102DB000FDF772FDAC2207210020FDF76DFD65498E
:102DC000091D0020FDF758FDFDF7EEFD5948FEF7FF
:102DD0002BFA0120604908705F480078002811D064
:102DE0000020FDF7A5FCFF20FDF7A2FC5848028853
:102DF00065A101A8FEF7AAFF01A90420FDF73CFD8B
:102E0000FDF7D2FD6DE700000010024000300140E8
:102E100073746D33326C303533382D646973636F7E
:102E2000BFAAB7A2B0E5B2E2CAD4B3CCD0F20AD7F7
:102E3000F7D5DFA3BACDF5C1C10A000073746D33B5
:102E4000326C303533382D646973636FBFAAB7A213
:102E5000B0E5D3B2BCFED7CAD4B4CBB5C3F70A0031
:102E6000B0B4BCFCA3BA42312D2D5041300A000051
:102E70004C4544C2CCA3BA4C44332D2D5042340AA5
:102E8000000000004C4544BAECA3BA4C44342D2D4C
:102E90005041350A00000000B5F7CAD4B4F2D3A1FE
:102EA000B4AEBFDAA3BA6465427567285553415280
:102EB0005431292D2D504139A3A85458A3A920508D
:102EC000413130A3A85258A3A90A00008466000823
:102ED000B5B1C7B0CFB5CDB3CAB1D6D3A3BA256407
:102EE000487A0A0A00000000C7EBBDABD2AA6550C1
:102EF00044CFD4CABEB5C44153494943D7D6B7FB22
:102F0000B4AECDA8B9FDB4AEBFDAB7A2CBCDB8F898
:102F1000CED22E2E0A000000E92F00082A2A2057C0
:102F2000656C636F6D2C20416C69636521202A2AD2
:102F3000000000008813000000040050002401403D
:102F4000E8FFFF7F00000020E40C0000FF0F0000FE
:102F5000040000205C00002006000020BDD3CAD57C
:102F6000B5BDB4AEBFDACAFDBEDDB9B22564D7D6F1
:102F7000BDDA0A00BDD3CAD5C4DAC8DDC8E7CFC2FE
:102F8000A3BA25730A0000004144433A25646D76D4
:102F9000000000004D792052656369766520446128
:102FA00074613A000FB438B5044672B6084804702C
:102FB000002506A8009000990598FEF7DBFE05465F
:102FC0000020009062B6284638BC08BC04B0184700
:102FD0000C000020081C3044586C80081C304458F9
:102FE0006C80081C3044586C80FFFF0000FFFF001D
:102FF00000FFFF0000FFFFFFFFFFFFFFFFFFFFFFDE
:10300000FFFFFFFFFFFFFFFFFFFFFFFFFFFFFFFFD0
:10301000FFFFFFFFFFFFFFFFFFFFFFFFFFFFFF00BF
:103020000000081C3044586C8000000000000000C4
:103030000001020304060708090000000001020362
:1030400004030406080C10182030FFFFFFFFFFFFE9
:10305000FFFFFFFFFFFFFFFFFFFFFFFFFFFFFFFF80
:10306000FFFFFFFFFFFFFFFFFFFFFFFFFFFFFFFF70
:10307000FFFFFFFFFFFFFFFFFFFFFFFFFFFFFFFF60
:10308000FFFFFFFFFFFFFFFFFFFFFFFFFFFFFFFF50
:10309000FFFFFFFFFFFFFFFFFFFFFFFFFFFFFFFF40
:1030A000FFFFFFFFFFFFFFFFFFFFF0FF0003FFF049
:1030B000F00003FFF0FF0003FFFFFFFFFFFFFFFF34
:1030C000FFFFFFFFFFFFFFFFFFFFFFFFFFFFFFFF10
:1030D000FFFFFFFFFFFFFFFFFFFFFFFFFFFFFFFF00
:1030E000FFFFFFFFFFFFFFFFFC0FFFFFFF000FFFD2
:1030F000FFFFFC0FFFFFFFFFFFFFFFFFFFFFFFFFD3
:10310000FFFC0FFFFFFF000FFFFFFFFC0FFFFFFFA4
:10311000FFFFFFFFFFFFFFFFFFFFFFFFFFFFFFFFBF
:10312000FFFFFFFFFFFFFFFFC3C3FFFFFFC3C3FF9F
:10313000FF00000000FF00000000FFFFC3C3FFFF0F
:10314000FFC3C3FFFF00000000FF00000000FFFFFF
:10315000C3C3FFFFFFC3C3FFFFFFFFFFFFFFFFFF6F
:10316000FFFFFFFFFFFFFFFFFFFFFFFFFFFFFFFF6F
:10317000FFFFFC03C0FFFFFC03003FFFFC3F0F0FFE
:10318000FF003F0F00FF003F0F00FFFC3C3F0FFF21
:10319000FF003C0FFFFFC0FC0FFFFFFFFFFFFFFF23
:1031A000FFFFFFFFFFFFFFFFFFFFFFFFFFFFFFFF2F
:1031B000FFFFFFFFF0FC0FFFFFF0F3F3FFFFFC3317
:1031C000F3FFFFFC33F3FFFC0F3C0FFFF3F30FFFA4
:1031D000FFF3F30FFFFFF3F3C3FFFFFC0FC3FFFF8A
:1031E000FFFFFFFFFFFFFFFFFFFFFFFFFFFFFFFFEF
:1031F000FFFFFFFFFFFFFFFFFFFFFFFFFFFFFC03DE
:10320000FFFFFFFC00C0FFFFF0F000FFFFF0F03C0D
:103210003FFFF0C0FC3FFFF003FC3FFFFC03FC3F1F
:10322000FFF0C0FC3FFFF0F0FC3FFFFFFFFFFFFFA0
:10323000FFFFFFFFFFFFFFFFFFFFFFFFFFFFFFFF9E
:10324000FFFFFFFFFFFFFFFFFFFFFFFFFFFFFFFF8E
:10325000FFFFFFFFFFFC0FFFFFFF000FFFFFFFFC63
:103260000FFFFFFFFFFFFFFFFFFFFFFFFFFFFFFF5E
:10327000FFFFFFFFFFFFFFFFFFFFFFFFFFFFFFFF5E
:10328000FFFFFFFFFFFFFFFFFFFFFFFFFFFFFFFF4E
:10329000FFFFFFFFFFFFFFFFFFFF000FFFFFC0006B
:1032A000003FFC00FFF003FC3FFFFFC3FFFFFFFFF9
:1032B000FFFFFFFFFFFFFFFFFFFFFFFFFFFFFFFF1E
:1032C000FFFFFFFFFFFFFFFFFFFFFFFFFFFFFFFF0E
:1032D000FFFFFFFFFC3FFFFFC3FC00FFF003FFC049
:1032E00000003FFFFF000FFFFFFFFFFFFFFFFFFF9B
:1032F000FFFFFFFFFFFFFFFFFFFFFFFFFFFFFFFFDE
:10330000FFFFFFFFFFFFFFFFFFFFFFFFFFFFFFFFCD
:10331000FFFFFFFFFFFFFFFFF0FFFFFFF0F0FFFFEA
:10332000FFF003FFFFFFFC0003FFFFFC0003FFFFB4
:10333000F003FFFFFFF0F0FFFFFFFFF0FFFFFFFFD5
:10334000FFFFFFFFFFFFFFFFFFFFFFFFFFFFFFFF8D
:10335000FFFFFFFFFFFFFFFFFC3FFFFFFFFC3FFF03
:10336000FFFFFC3FFFFFFFFC3FFFFFFC00003FFFB4
:10337000FC00003FFFFFFC3FFFFFFFFC3FFFFFFFA4
:10338000FC3FFFFFFFFC3FFFFFFFFFFFFFFFFFFFD3
:10339000FFFFFFFFFFFFFFFFFFFFFFFFFFFFFFFF3D
:1033A000FFFFFFFFFFFFFC0FFFFFFFFF003FFFFFDF
:1033B000FFF03FFFFFFFFF3FFFFFFFFFFFFFFFFFAC
:1033C000FFFFFFFFFFFFFFFFFFFFFFFFFFFFFFFF0D
:1033D000FFFFFFFFFFFFFFFFFFFFFFFFFFFFFFFFFD
:1033E000FFFFFFFFFC3FFFFFFFFC3FFFFFFFFC3F36
:1033F000FFFFFFFC3FFFFFFFFC3FFFFFFFFC3FFF26
:10340000FFFFFC3FFFFFFFFC3FFFFFFFFC3FFFFF15
:10341000FFFFFFFFFFFFFFFFFFFFFFFFFFFFFFFFBC
:10342000FFFFFFFFFFFFFFFFFFFFFFFFFFFFFFFFAC
:10343000FFFFFFFFFFFFFFFFFFFFFFFFFFF03FFF6B
:10344000FFFFF03FFFFFFFF03FFFFFFFFFFFFFFF2A
:10345000FFFFFFFFFFFFFFFFFFFFFFFFFFFFFFFF7C
:10346000FFFFFFFFFFFFFFFFFFFFFFFFFFFFFFFF6C
:10347000FFFFFFFF0FFFFFFFFF003FFFFFFFF00316
:10348000FFFFFFFFC03FFFFFFFFC03FFFFFFFFC089
:103490000FFFFFFFFC00FFFFFFFFF0FFFFFFFFFF3D
:1034A000FFFFFFFFFFFFFFFFFFFFFFFFFFFFFFFF2C
:1034B000FFFFFFFFFFFFC000FFFFFC00000FFFF05A
:1034C0003FFF03FFF0FFFFC3FFF0FFFFC3FFF0FF6D
:1034D000FFC3FFF03FFF03FFFC00000FFFFFC00032
:1034E000FFFFFFFFFFFFFFFFFFFFFFFFFFFFFFFFEC
:1034F000FFFFFFFFFFFFFFFFFFFFFFFFFFFFFFFFDC
:10350000F0FFFF0FFFF0FFFF0FFFF0FFFF0FFFF0D7
:10351000000003FFF0000003FFF0FFFFFFFFF0FFDC
:10352000FFFFFFF0FFFFFFFFFFFFFFFFFFFFFFFFBA
:10353000FFFFFFFFFFFFFFFFFFFFFFFFFFFFFFFF9B
:10354000FFF0FFFC3FFFF03FFC0FFFF00FFF03FF1A
:10355000F0C3FFC3FFF0F0FFC3FFF0FC3FC3FFF079
:10356000FF0F03FFF0FFC00FFFF0FFF03FFFFFFF73
:10357000FFFFFFFFFFFFFFFFFFFFFFFFFFFFFFFF5B
:10358000FFFFFC3FFFFFFFF03FFF0FFFF0FFFF0FCC
:10359000FFF0FFFFC3FFF0FF0FC3FFF0FF0FC3FFFC
:1035A000F0FF0FC3FFF03C0303FFFC00000FFFFF21
:1035B00000F03FFFFFFFFFFFFFFFFFFFFFFFFFFFE9
:1035C000FFFFFFFFFFFFFFFFFFFFFFFFFFFFC0FF4A
:1035D000FFFFFFC03FFFFFFFC303FFFFFFC3C0FFAD
:1035E000FFF0C3FC0FFFF0C3FF03FFF0000003FF79
:1035F000F0000003FFF0C3FFFFFFFFFFFFFFFFFF2F
:10360000FFFFFFFFFFFFFFFFFFFFFFFFFFFFFFFFCA
:10361000FFFFFFFC3FFFFFFFF03F0003FFF0FF0055
:1036200003FFF0FFC3C3FFF0FFC3C3FFF0FFC3C33B
:10363000FFF03F03C3FFFC000FC3FFFF003FFFFF8E
:10364000FFFFFFFFFFFFFFFFFFFFFFFFFFFFFFFF8A
:10365000FFFFFFFFFFFFFFFFFFFFC003FFFFFC00B7
:10366000003FFFFC3C300FFFF0FF0F0FFFF0FF0F9C
:1036700003FFF0FF0FC3FFF03C0FC3FFFC003FC38D
:10368000FFFF00FFC3FFFFFFFFFFFFFFFFFFFFFF85
:10369000FFFFFFFFFFFFFFFFFFFFFFFFFFFFFFFF3A
:1036A000FFFF03FFFFFFFF03FFFFFFFFC3FFFFFF5E
:1036B000FFC3FFF03FFFC3FFF000FFC3FFFFC003E6
:1036C000C3FFFFFC0003FFFFFFFC03FFFFFFFFFF43
:1036D000FFFFFFFFFFFFFFFFFFFFFFFFFFFFFFFFFA
:1036E000FFFFFFFFFFFF00F03FFFFC00000FFFF0B8
:1036F0003C0303FFF0FF0FC3FFF0FF0FC3FFF0FF1A
:103700000FC3FFF03C0303FFFC00000FFFFF00F0BE
:103710003FFFFFFFFFFFFFFFFFFFFFFFFFFFFFFF79
:10372000FFFFFFFFFFFFFFFFFFFFFFF0FFC03FFFB7
:10373000F0FF000FFFF0FC0F03FFF0FC3FC3FFF0B2
:103740003C3FC3FFFC3C3FC3FFFC030F0FFFFF00E8
:10375000000FFFFFF000FFFFFFFFFFFFFFFFFFFF76
:10376000FFFFFFFFFFFFFFFFFFFFFFFFFFFFFFFF69
:10377000FFFFFFFFFFFFFFFFFFFFFFFFFFFFFFFF59
:10378000FFFFFFFFFFF03F03FFFFF03F03FFFFF0EE
:103790003F03FFFFFFFFFFFFFFFFFFFFFFFFFFFFF5
:1037A000FFFFFFFFFFFFFFFFFFFFFFFFFFFFFFFF29
:1037B000FFFFFFFFFFFFFFFFFFFFFFFFFFFFFFFF19
:1037C000FFFFFFFFFFF03FFFFFFFFC03FFFFFFFFD7
:1037D000C3F03FFFFFF3F03FFFFFFFF03FFFFFFFAE
:1037E000FFFFFFFFFFFFFFFFFFFFFFFFFFFFFFFFE9
:1037F000FFFFFFFFFFFFFFFFFFFCFFFFFFFFFCFFDF
:10380000FFFFFFF03FFFFFFFF03FFFFFFFC30FFF92
:10381000FFFF0FC3FFFFFF0FC3FFFFFC3FF0FFFFE2
:10382000FC3FF0FFFFF0FFFC3FFFF0FFFC3FFFFF1E
:10383000FFFFFFFFFFFFFFFFFFFFFFFFFFFFFFC3D4
:10384000C3FFFFFFC3C3FFFFFFC3C3FFFFFFC3C32C
:10385000FFFFFFC3C3FFFFFFC3C3FFFFFFC3C3FFE0
:10386000FFFFC3C3FFFFFFC3C3FFFFFFC3C3FFFFD0
:10387000FFC3C3FFFFFFFFFFFFFFFFFFFFFFFFFFD0
:10388000FFFFFFFFFFFFFFFFFFF0FFFC3FFFF0FF29
:10389000FC3FFFFC3FF0FFFFFC3FF0FFFFFF0FC3CB
:1038A000FFFFFF0FC3FFFFFFC30FFFFFFFF03FFF4F
:1038B000FFFFF03FFFFFFFFCFFFFFFFFFCFFFFFFED
:1038C000FFFFFFFFFFFFFFFFFFFFFFFFFFFFFFFF08
:1038D000FFFFFFFFFFFFF03FFFFFFFF00FFFF0FFD5
:1038E000FF0FFFF0F0FF0FFFF0F03F0FFFFFFC3F77
:1038F0000FFFFFFF003FFFFFFFC0FFFFFFFFFFFFC6
:10390000FFFFFFFFFFFFFFFFFFFFFFFFFFFFFFFFC7
:10391000FFFFFFFFFFFFFFFFFFFFFF0000FFFFF0C4
:10392000FFFF0FFFCFFFFFCFFFCFF03FF3FFCFCF62
:10393000CFF3FFCFCFCFC3FFF3C0003FFFFFFFFFA9
:10394000FFFFFFFFFFFFFFFFFFFFFFFFFFFFFFFF87
:10395000FFFFFFFFFFFFF0FFFFFFFFF03FFFFFFF55
:10396000F003FF0FFFF0C03F0FFFFFC0030FFFFF8B
:10397000C3C00FFFFFC3FC0FFFFFC3000FFFF0C06A
:1039800003FFFFF000FFFFFFF03FFFFFFFF0FFFF2F
:10399000FFFFFFFFFFFFFFFFFFFFFFFFFFFFFFFF37
:1039A000FFF0FFFF0FFFF000000FFFF000000FFF20
:1039B000F0FC3F0FFFF0FC3F0FFFF0FC3F0FFFF06C
:1039C000FC0F0FFFF0F0003FFFF000C0FFFFFC0313
:1039D000FFFFFFFFFFFFFFFFFFFFFFFFFFFFFFFFF7
:1039E000FFFFFFFFFFFFFFFFC003FFFFFF0000FF20
:1039F000FFFC0FF03FFFF03FFC0FFFF0FFFF0FFF5A
:103A0000F0FFFF0FFFF0FFFF0FFFF03FFC3FFFFC59
:103A10000FF00FFFFF0FF00FFFFFFFFFFFFFFFFF94
:103A2000FFFFFFFFFFFFFFFFF0FFFF0FFFF00000B2
:103A30000FFFF000000FFFF0FFFF0FFFF0FFFF0F81
:103A4000FFF0FFFF0FFFF0FFFF0FFFF03FFC0FFF46
:103A5000FC0FF03FFFFF0000FFFFFFC003FFFFFF71
:103A6000FFFFFFFFFFFFFFFFFFFFFFFFFFFFFFFF66
:103A7000FFFFFFF0FFFF0FFFF000000FFFF000005F
:103A80000FFFF0FC3F0FFFF0FC3F0FFFF0F00F0FB8
:103A9000FFF0F00F0FFFF0FFFF0FFFF00FF00FFF31
:103AA000F00FF00FFFFFFFFFFFFFFFFFFFFFFFFF24
:103AB000FFFFFFFFFFFFFFFFFFF0FFFF0FFFF00023
:103AC000000FFFF000000FFFF0FC3F0FFFF0FC3F86
:103AD0000FFFF0F00F0FFFF0F00F0FFFFFFFFF0FD2
:103AE000FFFFFFF00FFFFFFFF00FFFFFFFFFFFFFE4
:103AF000FFFFFFFFFFFFFFFFFFFFFFFFFFFFFFFFD6
:103B0000C003FFFFFC00003FFFFC00003FFFF0FF91
:103B1000FF0FFFF0FFFF0FFFF0F0FF0FFFF0F0FFD0
:103B20000FFFF0F0FC3FFFFC00F00FFFFC00F00F78
:103B3000FFFFF0FFFFFFFFFFFFFFFFFFFFFFFFFFA4
:103B4000FFFFFFFFFFF0FFFF0FFFF000000FFFF090
:103B500000000FFFF0FC3F0FFFFFFC3FFFFFFFFCEB
:103B60003FFFFFF0FC3F0FFFF000000FFFF00000F1
:103B70000FFFF0FFFF0FFFFFFFFFFFFFFFFFFFFF44
:103B8000FFFFFFFFFFFFFFFFFFFFFFFFFFFFFFFF45
:103B9000F0FFFF0FFFF0FFFF0FFFF0FFFF0FFFF041
:103BA00000000FFFF000000FFFF0FFFF0FFFF0FF1E
:103BB000FF0FFFF0FFFF0FFFFFFFFFFFFFFFFFFF04
:103BC000FFFFFFFFFFFFFFFFFFFFFFFFFFFFFFFF05
:103BD000FFFC00FFFFFFFC00FFFFFFF0FFFFFFFF08
:103BE000F0FFFFFFFFF0FFFF0FFFF0FFFF0FFFF001
:103BF0003FFF0FFFFC00000FFFFF00000FFFFFFF64
:103C0000FF0FFFFFFFFF0FFFFFFFFFFFFFFFFFFFA4
:103C1000FFFFFFFFFFFFFFF0FFFF0FFFF000000FB0
:103C2000FFF000000FFFF0FC3F0FFFF0FF0F0FFF52
:103C3000FFFC03FFFFFFC0F00FFFFC03FC0FFFF0D2
:103C40003FFC0FFFF0FFFF0FFFF0FFFF0FFFFFFF35
:103C5000FFFFFFFFFFFFFFFFFFFFFFFFFFF0FFFF83
:103C60000FFFF0FFFF0FFFF000000FFFF000000F4D
:103C7000FFF0FFFF0FFFF0FFFF0FFFF0FFFFFFFF61
:103C8000F0FFFFFFFFF003FFFFFFF003FFFFFFFF69
:103C9000FFFFFFFFFFFFFFFFFFFFFFFFFFFFF0FF43
:103CA000FF0FFFF000000FFFF000000FFFF0FFF02C
:103CB0000FFFF0FC03FFFFFFC03FFFFFFFC03FFF10
:103CC000FFF0FC03FFFFF0FFF00FFFF000000FFF1D
:103CD000F000000FFFF0FFFF0FFFFFFFFFFFFFFFF0
:103CE000FFFFFFFFFFFFFFFFFFF0FFFF0FFFF000F1
:103CF000000FFFF000000FFFF0FFC03FFFF0FC03DC
:103D0000FFFFFFC03F0FFFFC03FF0FFFF000000F9E
:103D1000FFF000000FFFFFFFFF0FFFFFFFFFFFFFA0
:103D2000FFFFFFFFFFFFFFFFFFFFFFFFFFFFFFFFA3
:103D3000C003FFFFFF0000FFFFFC0FF03FFFF03F5D
:103D4000FC0FFFF0FFFF0FFFF0FFFF0FFFF03FFC46
:103D50000FFFFC0FF03FFFFF0000FFFFFFC003FF5E
:103D6000FFFFFFFFFFFFFFFFFFFFFFFFFFFFFFFF63
:103D7000FFFFFFFFFFF0FFFF0FFFF000000FFFF05E
:103D800000000FFFF0F0FF0FFFF0F0FF0FFFF0F06B
:103D9000FF0FFFFFF0FF0FFFFFF03C0FFFFFFC00E6
:103DA0003FFFFFFF00FFFFFFFFFFFFFFFFFFFFFFE2
:103DB000FFFFFFFFFFFFFFFFFFFFFFFFC003FFFF4E
:103DC000FF0000FFFC3C0FF03FFC003FFC0FFF003A
:103DD000FFFF0FFF00FFFF0FFC003FFC0FFC3C0F3D
:103DE000F03FFC0F0000FFFF0FC003FFFFFFFFFFCE
:103DF000FFFFFFFFFFFFFFFFFFFFFFFFFFFFFFFFD3
:103E0000FFF0FFFF0FFFF000000FFFF000000FFFBB
:103E1000F0FC3F0FFFF0FC3F0FFFFFFC3F0FFFFFE9
:103E2000F03F0FFFFF000C0FFFFC03003FFFF0FF10
:103E3000C0FFFFF0FFFFFFFFFFFFFFFFFFFFFFFFE0
:103E4000FFFFFFFFFFFFFFF00FC0FFFFF00F003F7E
:103E5000FFFC3F0C0FFFF0FC3F0FFFF0FC3F0FFF9C
:103E6000F0FC3F0FFFF0FC3F0FFFF030FC3FFFFC8A
:103E700000F00FFFFF03F00FFFFFFFFFFFFFFFFF4B
:103E8000FFFFFFFFFFFFFFFFFFFFFFFFFFFFFFC081
:103E90000FFFFFFFC00FFFF0FFFF0FFFF0FFFF0F4F
:103EA000FFF000000FFFF000000FFFF0FFFF0FFF1B
:103EB000F0FFFF0FFFFFFFC00FFFFFFFC00FFFFF6F
:103EC000FFFFFFFFFFFFFFFFFFFFFFFFFFFFFFFF02
:103ED000FFFFFFFFFFFF0FFFFF00000FFFFC0000D1
:103EE0000FFFF03FFF0FFFF0FFFFFFFFF0FFFFFFAF
:103EF000FFF03FFF0FFFFC00000FFFFF00000FFF70
:103F0000FFFFFF0FFFFFFFFFFFFFFFFFFFFFFFFFB1
:103F1000FFFFFFFFFFFFFF0FFFFFFFF00FFFFFFFA0
:103F2000000FFFFFC00F0FFFF000FFFFFFF03FFF8C
:103F3000FFFFF000FFFFFFFFC00F0FFFFFFF000FAD
:103F4000FFFFFFF00FFFFFFFFF0FFFFFFFFFFFFF70
:103F5000FFFFFFFFFFFFFFFFFFFFFFFFFF0FFFFF61
:103F6000FC000FFFF000000FFFF00FFF0FFFFC0041
:103F7000FF0FFFFFF003FFFFFFFF03FFFFFFF00353
:103F8000FFFFFC00FF0FFFF00FFF0FFFF000000F1F
:103F9000FFFFFC000FFFFFFFFF0FFFFFFFFFFFFF13
:103FA000F0FFFF0FFFF03FFC0FFFF00FF00FFFF0EF
:103FB000C3C30FFFFFF00FFFFFFFFC3FFFFFFFF04A
:103FC0000FFFFFF0C3C30FFFF00FF00FFFF03FFC38
:103FD0000FFFF0FFFF0FFFFFFFFFFFFFFFFFFFFFE0
:103FE000FFFFFFFFFFFFFFFFFFFFFFFFFFFF0FFFD1
:103FF000FFFFFC0FFFF0FFF00FFFF0FF030FFFF0DC
:10400000000FFFFFF0000FFFFFF0FF030FFFF0FFB7
:10401000F00FFFFFFFFC0FFFFFFFFF0FFFFFFFFF92
:10402000FFFFFFFFFFFFFFFFFFFFFFFFFFFFFFFFA0
:10403000FFFFFFFFFFFFF03FF00FFFF00FF00FFF5C
:10404000F0C3FF0FFFF0F03F0FFFF0FC0F0FFFF08A
:10405000FFC30FFFF00FF00FFFF00FFC0FFFFFFF8C
:10406000FFFFFFFFFFFFFFFFFFFFFFFFFFFFFFFF60
:10407000FFFFFFFFFFFFFFFFFFFFFFFFFFFFFFFF50
:10408000FFFFFFFFFFFFFFFFFFFFFC0000000FFC33
:104090000000000FFC3FFFFF0FFC3FFFFF0FFFFF83
:1040A000FFFFFFFFFFFFFFFFFFFFFFFFFFFFFFFF20
:1040B000FFFFFFFFFFFFFFFFFFFFFFFFFFFFFFFF10
:1040C000FFFFFFFFFFF0FFFFFFFC00FFFFFFC00F40
:1040D000FFFFFC03FFFFFFC03FFFFFF003FFFFFFF9
:1040E000003FFFFFFF0FFFFFFFFFFFFFFFFFFFFF8F
:1040F000FFFFFFFFFFFFFFFFFFFFFFFFFFFFFFFFD0
:10410000FFFFFFFFFFFFFFFFFFFFFFFFFC3FFFFF82
:104110000FFC3FFFFF0FFC0000000FFC0000000F32
:10412000FFFFFFFFFFFFFFFFFFFFFFFFFFFFFFFF9F
:10413000FFFFFFFFFFFFFFFFFFFFFFFFFFFFFFFF8F
:10414000FFFFFFFFFFFFFFFFFFFFFFC3FFFFFFFFBB
:10415000F0FFFFFFFFFC3FFFFFFFFF0FFFFFFFFF31
:10416000C3FFFFFFFF0FFFFFFFFC3FFFFFFFF0FF5D
:10417000FFFFFFC3FFFFFFFFFFFFFFFFFFFFFFFF8B
:10418000FFFFFFFF0FFFFFFFFF0FFFFFFFFF0FFF0F
:10419000FFFFFF0FFFFFFFFF0FFFFFFFFF0FFFFFFF
:1041A000FFFF0FFFFFFFFF0FFFFFFFFF0FFFFFFFEF
:1041B000FF0FFFFFFFFF0FFFFFFFFF0FFFFFFFFFDF
:1041C0000FFFFFFFFF0FFFFFFFFFFFFFFFFFFFFFDF
:1041D000FFFFFFFFFFFFFFFFFFFFFFFFFFFFFFFFEF
:1041E000FFFFFFFFFFFFFFF3FFFFFFFFCFFFFFFF1B
:1041F000FFCFFFFFFFFF3FFFFFFFFFFFFFFFFFFFBF
:10420000FFFFFFFFFFFFFFFFFFFFFFFFFFFFFFFFBE
:10421000FFFFFFFFFFFFFFFFFFFFFFFC0FFFFFFFA1
:10422000F003CFFFFFF0C0C3FFFFF0F0C3FFFFF0CC
:10423000F0C3FFFFFC30C3FFFFF00003FFFFF000FF
:104240000FFFFFF0FFFFFFFFFFFFFFFFFFFFFFFF7D
:10425000FFFFFFFFFFFFFFFFFFFFFFFFF0FFFFC3B9
:10426000FFF0000003FFF0000003FFFC3F0FFFFF23
:10427000F0FFC3FFFFF0FFC3FFFFF0FFC3FFFFF03E
:10428000FFC3FFFFFC3F0FFFFFFC000FFFFFFFC05E
:10429000FFFFFFFFFFFFFFFFFFFFFFFFFFFFFFFF2E
:1042A000FFFFFFFFFFFFFFFF00FFFFFFFC000FFF0F
:1042B000FFF03F0FFFFFF0FFC3FFFFF0FFC3FFFF63
:1042C000F0FFC3FFFFF0FFC3FFFFF0FFCFFFFFFCD6
:1042D0003C03FFFFFC3C03FFFFFFFFFFFFFFFFFF6F
:1042E000FFFFFFFFFFFFFFFFFFFFFFFFFFFF00FFDD
:1042F000FFFFFC000FFFFFFC3F0FFFFFF0FFC3FFBE
:10430000FFF0FFC3FFFFF0FFC3FFFFF0FFC3FFFF9E
:10431000FC3F0FC3FFF0000003FFF0000003FFF0BD
:10432000FFFFFFFFFFFFFFFFFFFFFFFFFFFFFFFF9D
:10433000FFFFFFFFC0FFFFFFFC000FFFFFFC300F80
:10434000FFFFF0F0C3FFFFF0F0C3FFFFF0F0C3FF8B
:10435000FFF0F0C3FFFFF0F00FFFFFFC300FFFFF97
:10436000FC30FFFFFFFFFFFFFFFFFFFFFFFFFFFF2F
:10437000FFFFFFFFFFFFFFFFFFFFFFFFFFFFF0FF5C
:10438000C3FFFFF0FFC3FFFFF000000FFFF00000CE
:1043900003FFF0FFC3C3FFF0FFC3C3FFF0FFC3C3BE
:1043A000FFF0FFC3C3FFFFFFFFC3FFFFFFFFFFFFE0
:1043B000FFFFFFFFFFFFFFFFFFFFFFFFFFFFFFFF0D
:1043C000C0FFFFFFFC000FFFF0FC3F0FFFF0F0FF0E
:1043D000C3FFF0F0FFC3FFF0F0FFC3FFF0F0FFC337
:1043E000FFF03C3F0FFFFC000003FFFF000003FF56
:1043F000FFFFFFC3FFFFFFFFFFFFFFFFFFFFFFFF09
:10440000FFFFFFFFFFF0FFFFC3FFF0000003FFF01F
:10441000000003FFF0FF0FFFFFFFFFC3FFFFFFFFE1
:10442000C3FFFFF0FFC3FFFFF00003FFFFF0000F2B
:10443000FFFFF0FFFFFFFFFFFFFFFFFFFFFFFFFF9B
:10444000FFFFFFFFFFFFFFFFFFFFFFFFFFFFFFFF7C
:10445000F0FFC3FFFFF0FFC3FFFFF0FFC3FFFFF05C
:104460000003C3FFF00003C3FFF0FFFFFFFFF0FFF7
:10447000FFFFFFF0FFFFFFFFFFFFFFFFFFFFFFFF5B
:10448000FFFFFFFFFFFFFFFFFFFFFFFFFFFFFFFF3C
:10449000FFFFFFFFFFF0FFFFFFFFF0FFFFC3FFF095
:1044A000FFFFC3FFF0FFFFC3FFF0FFFFC3C3F0FF39
:1044B000FFC3C3FC000003FFFF000003FFFFFFFF7B
:1044C000FFFFFFFFFFFFFFFFFFFFFFFFFFFFFFFFFC
:1044D000FFFFFFFFFFFFFFF0FFFFC3FFF000000340
:1044E000FFF0000003FFFFF0FFFFFFFFC003FFFF2F
:1044F000F00F03FFFFF03FC3FFFFF0FFC3FFFFF02C
:10450000FFC3FFFFF0FFFFFFFFFFFFFFFFFFFFFF06
:10451000FFFFFFFFFFFFFFFFFFFFFFFFFFFFFFFFAB
:10452000FFFFF0FFFFC3FFF0FFFFC3FFF0FFFFC37C
:10453000FFF0000003FFF0000003FFF0FFFFFFFFAC
:10454000F0FFFFFFFFF0FFFFFFFFFFFFFFFFFFFF99
:10455000FFFFFFFFFFFFFFFFFFFFFFFFFFFFF0FF7A
:10456000C3FFFFF00003FFFFF00003FFFFF0FFC3F6
:10457000FFFFFFFFC3FFFFF00003FFFFF0000FFF8F
:10458000FFF0FFC3FFFFFFFFC3FFFFF00003FFFFCC
:10459000F0000FFFFFF0FFFFFFFFFFFFFFFFFFFF38
:1045A000FFFFFFFFFFFFFFFFFFF0FFC3FFFFF00074
:1045B00003FFFFF00003FFFFF0FF0FFFFFFFFFC34C
:1045C000FFFFFFFFC3FFFFF0FFC3FFFFF00003FF8C
:1045D000FFF0000FFFFFF0FFFFFFFFFFFFFFFFFFF8
:1045E000FFFFFFFFFFFFFFFFFFFFFFFFFFFFFFFFDB
:1045F000C0FFFFFFFC000FFFFFFC3F0FFFFFF0FFBE
:10460000C3FFFFF0FFC3FFFFF0FFC3FFFFF0FFC3D7
:10461000FFFFFC3F0FFFFFFC000FFFFFFFC0FFFF8E
:10462000FFFFFFFFFFFFFFFFFFFFFFFFFFFFFFF0A9
:10463000FFFFC3FFF0000003FFF0000003FFF0FCEA
:104640003F0FFFF0F0FFC3FFFFF0FFC3FFFFF0FFDE
:10465000C3FFFFF0FFC3FFFFFC3F0FFFFFFC000F96
:10466000FFFFFFC0FFFFFFFFFFFFFFFFFFFFFFFF99
:10467000FFFFFFFFFFFFFFFFFFFFFFFFC0FFFFFF89
:10468000FC000FFFFFFC3F0FFFFFF0FFC3FFFFF039
:10469000FFC3FFFFF0FFC3FFF0F0FFC3FFF0FC3FDD
:1046A0000FFFF0000003FFF0000003FFF0FFFFC367
:1046B000FFFFFFFFFFFFFFFFFFFFFFFFFFFFFFFF0A
:1046C000FFF0FFC3FFFFF0FFC3FFFFF00003FFFF9A
:1046D000F00003FFFFF0FC3FFFFFF0FF0FFFFFF0D4
:1046E000FFC3FFFFF0FFC3FFFFFFFF03FFFFFFFF5D
:1046F0000FFFFFFFFFFFFFFFFFFFFFFFFFFFFFFFBA
:10470000FFFFFFFFFFFFFFFFFFFFFFFFF03C0FFF7B
:10471000FFF0300FFFFFF0F0C3FFFFF0F0C3FFFF2B
:10472000F0C3C3FFFFF0C3C3FFFFFC0303FFFFFCA5
:104730000F03FFFFFFFFFFFFFFFFFFFFFFFFFFFF75
:10474000FFFFFFFFFFFFFFFFFFFFFFFFFFFFFFC3B5
:10475000FFFFFFFFC3FFFFFC00000FFFF000000F93
:10476000FFF0FFC3FFFFF0FFC3FFFFF0FFC3FFFF3A
:10477000F0FFC3FFFFFC3FC3FFFFFC3FFFFFFFFF56
:10478000FFFFFFFFFFFFFFFFFFFFFFFFFFFFFFFF39
:10479000FFFFFFFFFFC3FFFFFC0003FFFFF000036D
:1047A000FFFFF0FFFFFFFFF0FFFFFFFFF0FFFFFF46
:1047B000FFFC3FC3FFFFF00003FFFFF00003FFFF1C
:1047C000F0FFFFFFFFFFFFFFFFFFFFFFFFFFFFFF08
:1047D000FFFFFFFFFFFFC3FFFFFFFF03FFFFFFF030
:1047E00003FFFFFF00C3FFFFF00FFFFFFFF0FFFF1E
:1047F000FFFFF00FFFFFFFFF00C3FFFFFFF003FF0E
:10480000FFFFFF03FFFFFFFFC3FFFFFFFFFFFFFFF0
:10481000FFFFFFFFFFFFFFFFFFFFFFFFC3FFFFFFE4
:10482000F003FFFFF00003FFFFF00FC3FFFFFF03E4
:10483000FFFFFFFFF03FFFFFFF03FFFFFFF00FC38E
:10484000FFFFF00003FFFFFFF003FFFFFFFFC3FFC9
:10485000FFFFFFFFFFFFFFFFFFFFFFFFFFFFFFFF68
:10486000FFFFFFFFFFF0FFC3FFFFF0FFC3FFFFF0FD
:104870003F03FFFFF00C03FFFFFFC0FFFFFFFFC080
:10488000FFFFFFF00C03FFFFF03F03FFFFF0FFC34C
:10489000FFFFF0FFC3FFFFFFFFFFFFFFFFFFFFFF73
:1048A000FFFFFFFFFFF0FFFFC3FFF0FFFF03FFF07D
:1048B000FFF003FFF03F00C3FFF0000FFFFFF0C069
:1048C0003FFFFFF0FC0FFFFFFFFF00C3FFFFFFF004
:1048D00003FFFFFFFF03FFFFFFFFC3FFFFFFFFFF1C
:1048E000FFFFFFFFFFFFFFFFFFFFFFFFFFFFFFFFD8
:1048F000FFFFFFFFFFFFF0FF03FFFFF03F03FFFF9E
:10490000F00FC3FFFFF0C3C3FFFFF0F0C3FFFFF0E2
:10491000FC03FFFFF03F03FFFFF03FC3FFFFFFFF7C
:10492000FFFFFFFFFFFFFFFFFFFFFFFFFFFFFFFF97
:10493000FFFFFFFFFFFFFFFFFFFFFFFFFFFFFFFF87
:10494000FFFFF3FFFFFFFFC0FFFFFF0000000FFCB2
:10495000000C0003FC3FFFFFC3FC3FFFFFC3FFFF52
:10496000FFFFFFFFFFFFFFFFFFFFFFFFFFFFFFFF57
:10497000FFFFFFFFFFFFFFFFFFFFFFFFFFFFFFFF47
:10498000FFFFFFFFFFFFFFFFFFFFFFFFFFFFFFFF37
:10499000FC00000003FC00000003FFFFFFFFFFFF1F
:1049A000FFFFFFFFFFFFFFFFFFFFFFFFFFFFFFFF17
:1049B000FFFFFFFFFFFFFFFFFFFFFFFFFFFFFFFF07
:1049C000FFFFFFFFFFFFFFFC3FFFFFC3FC3FFFFFB9
:1049D000C3FC000C0003FF0000000FFFFFC0FFFF3F
:1049E000FFFFF3FFFFFFFFFFFFFFFFFFFFFFFFFFE3
:1049F000FFFFFFFFFFFFFFFFFFFFFFFFFFFFFFFFC7
:104A0000FFFFFFFFFFFFFFFFFFFFFC3FFFFFFFFC7C
:104A10003FFFFFFFFF0FFFFFFFFF0FFFFFFFFC0F39
:104A2000FFFFFFF03FFFFFFFF0FFFFFFFFF0FFFF83
:104A3000FFFFF03FFFFFFFFC3FFFFFFFFFFFFFFF18
:104A4000FFFFFFFFFFFFFFFFFFFFFFFFFFFFFFFF76
:104A5000FFFFFFFFFFFFFFFFFFFFFFFFFFFFFFFF66
:104A6000FFFFFFFFFFFFFFFFFFFFFFFFFFFFFFFF56
:104A7000FFFFFFFFFFFFFFFFFFFFFFFFFFFFFFFF46
:104A8000FFCC0003FFCC0003FFFFFFFFFFFFFFFF92
:104A9000FFFFFFFFFFFFFFFFFFFFFFFFFFFFFFFF26
:104AA000FFFFFFFFFFFFFFFFFFFFFF0FFFFFC00F35
:104AB000FFFFFF0FFFFFFFFFFFFFFF0FFFFFC00F15
:104AC000FFFFFF0FFFFFFFFFFFFFFFFFFFFFFFFFE6
:104AD000FFFF33FFFF0003FFFF000003FFFF300372
:104AE000FF0003FFFF000003FFFF3003FFFF33FF62
:104AF000FFFFFFFFFFFFFFFFFFFFFFFFFFC0FC0FF8
:104B0000FFC0F003FFCFC0F3FC0FC3F0FFCF03F3F0
:104B1000FFC00F03FFF03F03FFFFFFFFFFFFFFFF9B
:104B2000FFFFFFFFFFFFFFFFFFFF3F0FFFFF0CF344
:104B3000FFFFCCF3FFFFC30FFFF0C3FFFFCF33FF37
:104B4000FFCF30FFFFF0FCFFFFFFFFFFFFFFFFFF86
:104B5000FFFFFFFFFFF0FFFFFFC0303FFFCF000F61
:104B6000FFCC0FCFFFF0FFCFFFC03FCFFFCF3FCF36
:104B7000FFFFFFFFFFFFFFFFFFFFFFFFFFFFFFFF45
:104B8000FFFFFFFFFFFFFFFFFFFFFFFFFFFFFF0F25
:104B9000FFFFC00FFFFFFF0FFFFFFFFFFFFFFFFF44
:104BA000FFFFFFFFFFFFFFFFFFFFFFFFFFFFFFFF15
:104BB000FFFFFFFFFFF000FFFFC0003FFC03FC030F
:104BC000FC3FFFC3FFFFFFFFFFFFFFFFFFFFFFFFF4
:104BD000FFFFFFFFFFFFFFFFFFFFFFFFFC3FFFC3E4
:104BE000FC03FC03FFC0003FFFF000FFFFFFFFFFDF
:104BF000FFFFFFFFFFFFFFFFFFFFFFFFFFFFFFFFC5
:104C0000FFFFFFFFFFFFFC3FFFFF0C3FFFFF003FE9
:104C1000FFFFF003FFFFF003FFFF003FFFFF0C3F2C
:104C2000FFFFFC3FFFFFFFFFFFFFFFFFFFFFFFFF57
:104C3000FFFFCFFFFFFFCFFFFFFFCFFFFFF0003FE2
:104C4000FFFFCFFFFFFFCFFFFFFFCFFFFFFFFFFF04
:104C5000FFFFFFFFFFFFFFFFFFFFFFFFFFFFFFFF64
:104C6000FFFFFFFFF03FFFFFFF03FFFFFFF3FFFF2B
:104C7000FFFFFFFFFFFFFFFFFFFFFFFFFFFFFFFF44
:104C8000FFFFFFFFFFFFFFFFFFFFCFFFFFFFCFFF94
:104C9000FFFFCFFFFFFFCFFFFFFFCFFFFFFFCFFFE4
:104CA000FFFFCFFFFFFFFFFFFFFFFFFFFFFFFFFF44
:104CB000FFFFFFFFFFFFFFFFFFFFFFFFFFC3FFFF40
:104CC000FFC3FFFFFFFFFFFFFFFFFFFFFFFFFFFF30
:104CD000FFFFFFFFFFFFFFFFFFFFFFFFFFFFFFFFE4
:104CE000FC3FFFFFFC03FFFFFFC03FFFFFFC0FFF88
:104CF000FFFFC0FFFFFFF00FFFFFFF00FFFFFFF010
:104D0000FFFFFFFFFFFFFFFFFFFFFFFFFFFC003F75
:104D1000FFF0000FFFC3FFC3FFCFFFF3FFC3FFC3CD
:104D2000FFF0000FFFFC003FFFFFFFFFFFFFFFFF53
:104D3000FFFFFFFFFFFFFFFFFFCFFFCFFFCFFFCF43
:104D4000FFCFFFCFFFC00003FFC00003FFCFFFFF77
:104D5000FFCFFFFFFFCFFFFFFFFFFFFFFFFFFFFFC3
:104D6000FFFFFFFFFFC3FC3FFFC0FC0FFFCC3FC3B3
:104D7000FFCF0FF3FFCFC3F3FFCFF003FFCFFC0F45
:104D8000FFFFFFFFFFFFFFFFFFFFFFFFFFF3FFCF6F
:104D9000FFC3FFC3FFCFF3F3FFCFF3F3FFCFF3F373
:104DA000FFCFC0F3FFC00003FFF00F0FFFFFFFFFB7
:104DB000FFFFFFFFFFFFFFFFFFFFFFFFFFFC3FFFC6
:104DC000FFFC03FFFFCCF03FFFCCFF03FFC000035D
:104DD000FFC00003FFCCFFFFFFFFFFFFFFFFFFFF50
:104DE000FFFFFFFFFFFFFFFFFFF3FFFFFFCFC0034A
:104DF000FFCFF003FFCFF3F3FFCFF3F3FFC003F3D5
:104E0000FFF00FF3FFFFFFFFFFFFFFFFFFFFFFFFBD
:104E1000FFFFFFFFFFFC00FFFFF0003FFFC3CF0FCE
:104E2000FFCFF3C3FFCFF3F3FFC003F3FFF00FF3A4
:104E3000FFFFFFFFFFFFFFFFFFFFFFFFFFFFFFFF82
:104E4000FFFFFFC3FFFFFFF3FFFFFFF3FFC0FFF311
:104E5000FFC000F3FFFF0003FFFFFF03FFFFFFFFA3
:104E6000FFFFFFFFFFFFFFFFFFFFFFFFFFF00C0F44
:104E7000FFC00003FFCFF3F3FFCFF3F3FFCFF3F354
:104E8000FFC00003FFF00C0FFFFFFFFFFFFFFFFF5E
:104E9000FFFFFFFFFFFFFFFFFFCFF00FFFCFC003BC
:104EA000FFCFCFF3FFC3CFF3FFF0F3C3FFF0000F4B
:104EB000FFFF003FFFFFFFFFFFFFFFFFFFFFFFFFC1
:104EC000FFFFFFFFFFFFFFFFFFFFFFFFFFC3F0FF3D
:104ED000FFC3F0FFFFFFFFFFFFFFFFFFFFFFFFFF2D
:104EE000FFFFFFFFFFFFFFFFFFFFFFFFFFFFFFFFD2
:104EF000FFFFFFFFFFFFFFFFFC3FFFFFFFC3FFFFC1
:104F0000FFF3F0FFFFFFF0FFFFFFFFFFFFFFFFFFDB
:104F1000FFFFFFFFFFFFFFFFFFFFCFFFFFFFCFFF01
:104F2000FFFF33FFFFFF33FFFFFCFCFFFFF3FF3FFB
:104F3000FFF3FF3FFFCFFFCFFFCFFFCFFFFFFFFF0D
:104F4000FFFFFFFFFFFFFFFFFFFF33FFFFFF33FF09
:104F5000FFFF33FFFFFF33FFFFFF33FFFFFF33FF91
:104F6000FFFF33FFFFFFFFFFFFFFFFFFFFFFFFFF1D
:104F7000FFCFFFCFFFCFFFCFFFF3FF3FFFF3FF3F99
:104F8000FFFCFCFFFFFF33FFFFFF33FFFFFFCFFFFF
:104F9000FFFFCFFFFFFFFFFFFFFFFFFFFFFFFFFF51
:104FA000FFFFFC3FFFFFFC0FFFCC3FCFFFCC0FCF3D
:104FB000FFFFCFCFFFFFC00FFFFFF03FFFFFFFFF5F
:104FC000FFFFFFFFFFFFFFFFFFFFFFFFFFF0003FBF
:104FD000FFCFFFCFFF3F0FF3FF3CF3F3FF3CF3F3B3
:104FE000FFCC000FFFFFFFFFFFFFFFFFFFFFFFFFF3
:104FF000FFFFFFFFFFCFFFFFFFC0FFCFFFC003CFCB
:10500000FFCF000FFFFF3F0FFFFF3F0FFFCF000F4E
:10501000FFC003FFFFC0FFFFFFCFFFFFFFFFFFFF4A
:10502000FFCFFFCFFFC0000FFFC0000FFFCFCFCFDC
:10503000FFCFCFCFFFCFCFCFFFC0000FFFF0303F6C
:10504000FFFFFFFFFFFFFFFFFFFFFFFFFFFC00FF72
:10505000FFF0003FFFC3FF0FFFCFFFCFFFCFFFCF1A
:10506000FFCFFFCFFFCFFFCFFFF3FF3FFFFCFC0FD2
:10507000FFFFFFFFFFFFFFFFFFCFFFCFFFC0000FCE
:10508000FFC0000FFFCFFFCFFFCFFFCFFFCFFFCF7E
:10509000FFC3FF0FFFF0003FFFFC00FFFFFFFFFF1C
:1050A000FFFFFFFFFFCFFFCFFFC0000FFFC0000FCC
:1050B000FFCFCFCFFFCFCFCFFFCF03CFFFCFFFCFDC
:1050C000FFC0FC0FFFFFFFFFFFFFFFFFFFFFFFFF22
:1050D000FFCFFFCFFFC0000FFFC0000FFFCFCFCF2C
:1050E000FFCFCFCFFFFF03CFFFFFFFCFFFFFFC0FAF
:1050F000FFFFFFFFFFFFFFFFFFFFFFFFFFFC00FFC2
:10510000FFF0003FFFC3FF0FFFCFFFCFFFCF3FCF29
:10511000FFCF3FCFFFC03F3FFFC03C0FFFFF3FFF30
:10512000FFFFFFFFFFFFFFFFFFCFFFCFFFC0000F1D
:10513000FFC0000FFFCFCFCFFFFFCFFFFFCFCFCFFD
:10514000FFC0000FFFC0000FFFCFFFCFFFFFFFFF2B
:10515000FFFFFFFFFFFFFFFFFFCFFFCFFFCFFFCF1F
:10516000FFCFFFCFFFC0000FFFC0000FFFCFFFCF6B
:10517000FFCFFFCFFFCFFFCFFFFFFFFFFFFFFFFFFF
:10518000FFF03FFFFFC03FFFFFCFFFCFFFCFFFCFBD
:10519000FFCFFFCFFFC0000FFFF0000FFFFFFFCFDB
:1051A000FFFFFFCFFFFFFFFFFFFFFFFFFFCFFFCF9F
:1051B000FFC0000FFFC0000FFFCF0FCFFFFF03FFA7
:1051C000FFFC30CFFFC0FC0FFFC3FF0FFFCFFFCFAF
:1051D000FFFFFFFFFFFFFFFFFFCFFFCFFFCFFFCF9F
:1051E000FFC0000FFFC0000FFFCFFFCFFFCFFFCFEB
:1051F000FFCFFFFFFFCFFFFFFFC03FFFFFFFFFFF1E
:10520000FFCFFFCFFFC0000FFFC0000FFFCFF0FFA9
:10521000FFCF03FFFFFC3FFFFFCF03FFFFCFF0FFF8
:10522000FFC0000FFFC0000FFFCFFFCFFFFFFFFF4A
:10523000FFCFFFCFFFC0000FFFC0000FFFCFF0FF79
:10524000FFFF03FFFFFC3FCFFFC0000FFFC0000FB9
:10525000FFFFFFCFFFFFFFFFFFFFFFFFFFFC00FF90
:10526000FFF0003FFFC3FF0FFFCFFFCFFFCFFFCF08
:10527000FFCFFFCFFFC3FF0FFFF0003FFFFC00FF9A
:10528000FFFFFFFFFFFFFFFFFFCFFFCFFFC0000FBC
:10529000FFC0000FFFCF3FCFFFCF3FCFFFCF3FCFAC
:1052A000FFFF000FFFFFC03FFFFFFFFFFFFFFFFFFC
:1052B000FFFFFFFFFFFC00FFFFF0003FFCC3FF0FFD
:1052C000FC0FFFCFFC0FFFCFFCCFFFCFFCC3FF0FC6
:1052D000FC30003FFF3C00FFFFFFFFFFFFFFFFFF31
:1052E000FFCFFFCFFFC0000FFFC0000FFFCFCFCF1A
:1052F000FFCFCFCFFFFF0FCFFFF0300FFFC0F03F4A
:10530000FFCFFFFFFFCFFFFFFFFFFFFFFFFFFFFF0D
:10531000FFC0F03FFFC0C00FFFCFC3CFFFCFCFCF45
:10532000FFCF0FCFFFC00C0FFFF03C0FFFFFFFFFC1
:10533000FFFFFFFFFFFFFFFFFFFFF00FFFCFFFCFDC
:10534000FFCFFFCFFFC0000FFFC0000FFFCFFFCF89
:10535000FFCFFFCFFFFFF00FFFFFFFFFFFFFFFFFBC
:10536000FFFFFFFFFFFFFFCFFFF0000FFFF0000F79
:10537000FFCFFFCFFFCFFFFFFFCFFFCFFFF0000F2B
:10538000FFF0000FFFFFFFCFFFFFFFFFFFFFFFFF5B
:10539000FFFFFFCFFFFFFC0FFFFF000FFFC003CF9A
:1053A000FFC3FFFFFFC003CFFFFF000FFFFFFC0F96
:1053B000FFFFFFCFFFFFFFFFFFFFFFCFFFFFC00F8C
:1053C000FFC0000FFFC0FFCFFFF003CFFFFFC0FF04
:1053D000FFF003CFFFC0FFCFFFC0000FFFFFC00FE4
:1053E000FFFFFFCFFFFFFFFFFFCFFFCFFFC3FF0F89
:1053F000FFC0FC0FFFCC00CFFFFF03FFFFCC00CFAF
:10540000FFC0FC0FFFC3FF0FFFCFFFCFFFFFFFFF6A
:10541000FFFFFFFFFFFFFFCFFFFFFF0FFFCFFC0FDF
:10542000FFCFF0CFFFC003FFFFC003FFFFCFF0CFE0
:10543000FFCFFC0FFFFFFF0FFFFFFFCFFFFFFFFFBF
:10544000FFFFFFFFFFC3FC0FFFC0FFCFFFCC3FCF2D
:10545000FFCF03CFFFCFF0CFFFCFFC0FFFC0FF0F79
:10546000FFFFFFFFFFFFFFFFFFFFFFFFFFFFFFFF4C
:10547000FFFFFFFFFFFFFFFFFFFFFFFFFC00000339
:10548000FC000003FCFFFFF3FCFFFFF3FFFFFFFF47
:10549000FFFFFFFFFFFFFFFFFFFFFFFFFFFFFFF02B
:1054A000FFFFFF00FFFFF00FFFFFC0FFFFFC0FFF3C
:1054B000FFC03FFFFC03FFFFFC3FFFFFFFFFFFFFBD
:1054C000FFFFFFFFFFFFFFFFFFFFFFFFFCFFFFF3FB
:1054D000FCFFFFF3FC000003FC000003FFFFFFFFE5
:1054E000FFFFFFFFFFFFFFFFFFFFFFFFFFFFFFFFCC
:1054F000FFFFFFFFFFFFF0FFFFFFFF3FFFFFFFC3C7
:10550000FFFFFFFCFFFFFFC3FFFFFF3FFFFFF0FFB9
:10551000FFFFFFFFFFFFFFFF3FFFFFFF3FFFFFFF1B
:105520003FFFFFFF3FFFFFFF3FFFFFFF3FFFFFFF8B
:105530003FFFFFFF3FFFFFFF3FFFFFFF3FFFFFFF7B
:105540003FFFFFFFFFFFFFFFFFFFFFFFFFFFFFFF2B
:10555000FFFFFFFFFFFFFFFCFFFFFFF3FFFFFFCF9A
:10556000FFFFFFFFFFFFFFFFFFFFFFFFFFFFFFFF4B
:10557000FFFFFFFFFFFFFFFFFFF0FFFFFFC03CFF4C
:10558000FFCF3CFFFFCF3CFFFFF33CFFFFC000FF1E
:10559000FFC003FFFFCFFFFFFFFFFFFFFFFFFFFF86
:1055A000FFCFFFF3FFC00003FFC00003FFF3F3FFD3
:1055B000FFCFFCFFFFCFFCFFFFC3F0FFFFF003FFB7
:1055C000FFFC0FFFFFFFFFFFFFFFFFFFFFFC0FFFD1
:1055D000FFF003FFFFC3F0FFFFCFFCFFFFCFFCFF97
:1055E000FFCFFCFFFFC3F3FFFFF0C0FFFFFFFFFF94
:1055F000FFFFFFFFFFFFFFFFFFFC0FFFFFF003FFB9
:10560000FFC3F0FFFFCFFCFFFFCFFCFFFFF3F3F37F
:10561000FFC00003FFC00003FFCFFFFFFFFFFFFF3E
:10562000FFFFFFFFFFFC0FFFFFF003FFFFC330FF93
:10563000FFCF3CFFFFCF3CFFFFCF30FFFFC303FF97
:10564000FFF30FFFFFFFFFFFFFFFFFFFFFFFFFFF66
:10565000FFFFFFFFFFCFFCFFFFCFFCFFFFC0000FEE
:10566000FFC00003FFCFFCF3FFCFFCF3FFCFFCF341
:10567000FFFFFFF3FFFFFFF3FFFFFFFFFFFC0FFF45
:10568000FFF003FFF3C3F0FFF3CFFCFFF3CFFCFF0A
:10569000F3F3F3FFF00000FFFC0000FFFFFFFCFF4F
:1056A000FFFFFFFFFFFFFFFFFFCFFFF3FFC0000380
:1056B000FFC00003FFCFF3FFFFFFFCFFFFCFFCFFA6
:1056C000FFC000FFFFC003FFFFCFFFFFFFFFFFFF93
:1056D000FFFFFFFFFFFFFFFFFFCFFFFFFFCFFCFF3D
:1056E000FFCFFCFFFFC000C3FFC000C3FFCFFFFF21
:1056F000FFCFFFFFFFCFFFFFFFFFFFFFFFFFFFFF1A
:10570000FFFFFFFFF3FFFCFFF3FFFCFFF3FFFCFFD6
:10571000F3FFFCC3F00000C3FC0000FFFFFFFFFF2E
:10572000FFFFFFFFFFFFFFFFFFFFFFFFFFCFFFF3C5
:10573000FFC00003FFC00003FFFF0FFFFFCC00FF0F
:10574000FFC0F0FFFFC3FCFFFFCFFCFFFFCFFFFF59
:10575000FFFFFFFFFFFFFFFFFFCFFFFFFFCFFFF3C5
:10576000FFCFFFF3FFC00003FFC00003FFCFFFFF29
:10577000FFCFFFFFFFCFFFFFFFFFFFFFFFFFFFFF99
:10578000FFFFFFFFFFCFFCFFFFC000FFFFC000FFD8
:10579000FFFFFCFFFFC000FFFFC000FFFFFFFCFF9B
:1057A000FFC000FFFFC003FFFFCFFFFFFFFFFFFFB2
:1057B000FFCFFCFFFFC000FFFFC000FFFFCFF3FFE4
:1057C000FFFFFCFFFFCFFCFFFFC000FFFFC003FF98
:1057D000FFCFFFFFFFFFFFFFFFFFFFFFFFFC0FFFFC
:1057E000FFF003FFFFC3F0FFFFCFFCFFFFCFFCFF85
:1057F000FFCFFCFFFFC3F0FFFFF003FFFFFC0FFF35
:10580000FFFFFFFFFFFFFFFFF3FFFCFFF00000FFC4
:10581000F00000FFF3F3F3FFF3CFFCFFFFCFFCFF3B
:10582000FFC3F0FFFFF003FFFFFC0FFFFFFFFFFFD1
:10583000FFFFFFFFFFFC0FFFFFF003FFFFC3F0FFC1
:10584000FFCFFCFFF3CFFCFFF3F3F3FFF00000FF0B
:10585000F00000FFF3FFFCFFFFFFFFFFFFFFFFFF74
:10586000FFCFFCFFFFCFFCFFFFC000FFFFC000FF2A
:10587000FFCFF3FFFFCFFCFFFFCFFCFFFFFFF0FFE9
:10588000FFFFF3FFFFFFFFFFFFFFFFFFFFC3C3FFAC
:10589000FFC300FFFFCF0CFFFFCF0CFFFFCC3CFF8F
:1058A000FFC030FFFFF0F0FFFFFFFFFFFFFFFFFF34
:1058B000FFFFFFFFFFFFFFFFFFFFFCFFFFFFFCFFFE
:1058C000FFF00003FFC00003FFCFFCFFFFCFFCFF92
:1058D000FFCFFCFFFFF3FFFFFFFFFFFFFFFFFFFF17
:1058E000FFFFFFFFFFFFFCFFFFF000FFFFC000FF17
:1058F000FFCFFFFFFFCFFFFFFFF3FCFFFFC000FF65
:10590000FFC000FFFFCFFFFFFFFFFFFFFFFFFFFF15
:10591000FFFFFCFFFFFFC0FFFFFC00FFFFC03CFFDD
:10592000FFC3FFFFFFC03CFFFFFC00FFFFFFC0FF06
:10593000FFFFFCFFFFFFFFFFFFFFFCFFFFFF00FF7C
:10594000FFC000FFFFC0FCFFFFF03FFFFFFF0FFFA6
:10595000FFF03FFFFFC0FCFFFFC000FFFFFF00FFA5
:10596000FFFFFCFFFFFFFFFFFFCFFCFFFFCFFCFFB0
:10597000FFC3F0FFFFC000FFFFFC0FFFFFC000FFF1
:10598000FFC3F0FFFFCFFCFFFFCFFCFFFFFFFFFFD8
:10599000FFFFFFFFFFFFFCFFF3FFF0FFF3FF00FF40
:1059A000F0F00CFFF003FFFFF300FFFFFFF00CFF30
:1059B000FFFF00FFFFFFF0FFFFFFFCFFFFFFFFFF08
:1059C000FFFFFFFFFFC3F0FFFFC0FCFFFFCC3CFF6A
:1059D000FFCF3CFFFFCF0CFFFFCFC0FFFFC3F0FFA7
:1059E000FFFFFFFFFFFFFFFFFFFFFFFFFFFFFFFFC7
:1059F000FFFFFFFFFFFF3FFFFF00000FFC00C003A2
:105A0000FCFFFFF3FFFFFFFFFFFFFFFFFFFFFFFFB5
:105A1000FFFFFFFFFFFFFFFFFFFFFFFFFFFFFFFF96
:105A2000FFFFFFFFFFFFFFFFFC000003FC00000380
:105A3000FFFFFFFFFFFFFFFFFFFFFFFFFFFFFFFF76
:105A4000FFFFFFFFFFFFFFFFFFFFFFFFFFFFFFFF66
:105A5000FCFFFFF3FC00C003FF00000FFFFF3FFF50
:105A6000FFFFFFFFFFFFFFFFFFFFFFFFFFFFFFFF46
:105A7000FFFFFFFFFFFFCFFFFFFFF3FFFFFFF3FF7E
:105A8000FFFFCFFFFFFF3FFFFFFF3FFFFFFFCFFF06
:105A9000FFFFFFFFFFFFFFFFFFFFFFFFFFFFFFFF16
:105AA000FFFFFFFFFFFFFFFFFFFFFFFFFFFFFFFF06
:105AB000FFFFFFFFFFFFFCF003FFFFFFFFFFFFFF04
:105AC000FFFFFCF003FCF003FCF003FCF003FCF030
:105AD00003FCF003FCF003FFFFFFF0CCFFFF003FEF
